:020000040800F2
:100000007006002089010008910100089301000892
:100010009501000897010008990100080000000000
:100020000000000000000000000000009B0100082C
:100030009D010008000000009F010008A1010008C8
:10004000A3010008A3010008A3010008A301000800
:10005000A3010008A3010008A3010008A3010008F0
:10006000A3010008A3010008A3010008A3010008E0
:10007000A3010008A3010008A3010008A3010008D0
:10008000A3010008A3010008A3010008A3010008C0
:10009000A3010008A3010008A3010008A3010008B0
:1000A000A3010008A3010008A3010008A3010008A0
:1000B000A3010008A301000800000000A30100083C
:1000C000A30100080000000000000000A3010008D8
:1000D00000000000A3010008A301000800000000C8
:1000E000A3010008A3010008A301000800F002F822
:1000F00000F03AF80AA090E8000C82448344AAF188
:100100000107DA4501D100F02FF8AFF2090EBAE885
:100110000F0013F0010F18BFFB1A43F0010318473B
:100120006006000080060000103A24BF78C878C13D
:10013000FAD8520724BF30C830C144BF04680C60ED
:10014000704700000023002400250026103A28BF35
:1001500078C1FBD8520728BF30C148BF0B60704739
:100160001FB51FBD10B510BD00F031F81146FFF7E7
:10017000F7FF00F037F900F04FF803B4FFF7F2FF94
:1001800003BC00F057F800000948804709480047C1
:10019000FEE7FEE7FEE7FEE7FEE7FEE7FEE7FEE737
:1001A000FEE7FEE704480549054A064B7047000094
:1001B0002D030008ED0000087000002070060020EC
:1001C000700200207002002070477047704775462B
:1001D00000F02CF8AE4605006946534620F00700B3
:1001E000854618B020B5FFF7DDFFBDE820404FF091
:1001F00000064FF000074FF000084FF0000B21F011
:100200000701AC46ACE8C009ACE8C009ACE8C009DD
:10021000ACE8C0098D46704710B50446AFF30080C6
:100220002046BDE81040FFF7A8BF00000048704717
:100230001000002001491820ABBEFEE72600020096
:10024000704710B500F002F810BD00000CB500209A
:10025000019000903348006840F4803031490860D4
:1002600000BF3048006800F4003000900198401C46
:100270000190009818B90198B0F5A06FF1D1294804
:10028000006800F4003010B10120009001E000206F
:1002900000900098012843D12348006840F01000E6
:1002A000214908600846006820F0030008600846FD
:1002B000006840F0020008601A4840681949486028
:1002C0000846406848600846406840F480604860DE
:1002D0000846406820F47C1048600846406840F4B6
:1002E000E81048600846006840F08070086000BF71
:1002F0000C48006800F000700028F9D009484068F8
:1003000020F00300074948600846406840F00200BA
:10031000486000BF0348406800F00C000828F9D18D
:100320000CBD0000001002400020024010B5134830
:10033000006840F001001149086008464068104913
:1003400008400E494860084600680E4908400B49BD
:1003500008600846006820F480200860084640686D
:1003600020F4FE0048604FF41F008860FFF769FF2B
:100370004FF000600449086010BD0000001002400A
:100380000000FFF8FFFFF6FE08ED00E000BF011ED1
:10039000A0F10100FBD1704700B50948006840F4A6
:1003A000807007490860C820FFF7F0FF4FF48070A5
:1003B000034908310860C820FFF7E8FF00BD0000CE
:1003C0000C08014010B503460C4658020449086069
:1003D0000846006820430860FFF7DEFF10BD0000FC
:1003E0000C0801408320A4490860002048601C20BC
:1003F00088614FF02230A1490860A148091D0860BA
:1004000042F222209F49086038210020FFF7DAFFDE
:100410000C210020FFF7D6FF9BA000F041F9C0217E
:100420000020FFF7CFFF26E1012096490C3108603C
:1004300092480830006800F40040A8B13120964985
:10044000964A1268885431210120FFF7BBFF934878
:100450000068401C9149086000BF88480830006867
:1004600000F400400028F8D184480830006800F407
:100470008040A8B132208849884A126888543221C5
:100480000120FFF79FFF85480068401C83490860F2
:1004900000BF7A480830006800F480400028F8D196
:1004A00076480830006800F40050A8B133207A493B
:1004B0007A4A1268885433210120FFF783FF774876
:1004C0000068401C7549086000BF6C48083000682F
:1004D00000F400500028F8D102206A490C3108606D
:1004E00066480830006800F40040A8B134206A492A
:1004F0006A4A1268885434210120FFF763FF674875
:100500000068401C6549086000BF5C48083000680E
:1005100000F400400028F8D158480830006800F482
:100520008040A0B135215C485C4A126881540120AA
:10053000FFF748FF59480068401C5849086000BF51
:100540004E480830006800F480400028F8D14B483D
:100550000830006800F40050A0B136214E484F4AE0
:10056000126881540120FFF72DFF4C480068401CA1
:100570004A49086000BF41480830006800F4005054
:100580000028F8D104203F490C3108603B4808306E
:10059000006800F40040A0B137213F483F4A12688C
:1005A00081540120FFF70EFF3C480068401C3B4986
:1005B000086000BF31480830006800F4004000289F
:1005C000F8D12E480830006800F48040A8B13820E7
:1005D0003149324A1268885438210120FFF7F2FE6F
:1005E0002E480068401C2D49086000BF2348083091
:1005F000006800F480400028F8D1204808300068E6
:1006000000F40050A0B139212348244A12688154D3
:100610000120FFF7D7FE21480068401C1F490860F1
:1006200000BF16480830006800F400500028F8D1D8
:10063000082014490C31086010480830006800F4A4
:10064000004008B100F056F80C480830006800F48B
:10065000804080B130201049104A126888543021FF
:100660000120FFF7AFFE00BF04480830006800F427
:1006700080400028F8D1D7E6001002400008014071
:1006800022008088000C0140454E544552205448B9
:1006900045205057443A0000080000200400002084
:1006A00010B5044600201149086019E00F48007891
:1006B0008030C1B20020FFF785FE4FF400700C4976
:1006C00008600846006809490968615C08430849F0
:1006D0000860FFF761FE05480068401C0349086098
:1006E00002480068205C0028E0D110BD0000002016
:1006F0000C0801400CB518A103C9CDE90001012186
:100700000020FFF75FFE0020154908601BE0154838
:1007100013490968405C124A12681DF802108842A9
:1007200003D011A0FFF7BCFF08E00E490C48006899
:10073000401C085C10B10FA0FFF7B2FF084800682A
:10074000401C07490860074805490968405C0028C3
:10075000DDD100BFFEE7000031323334000000007D
:10076000000000200800002057524F4E47205057ED
:1007700044000000505744204D41544348000000BD
:10078000A007000800000020100000002801000859
:10079000B0070008100000206006000044010008B7
:1007A0000000000000000000000000000000000049
:04000005080000ED02
:00000001FF
