:060000000A128A11FA2F1A
:100F7600831203138C1CC02FC12FC82F0130F0071A
:100F86000318F10A0030F1078C10080083160313CA
:100F96008701831203138701053092000630910002
:100FA600FF308316031392000A128A11BB270A1216
:100FB6008A11A03070060F3003197106031DE42F45
:100FC600E52FE82F831203130714403070061F30F5
:100FD60003197106031DF02FF12FD72F8312031368
:100FE6000710F001F101D72F0A128A110028F0012B
:0A0FF600F10183010A128A11C92FCC
:08400000FF3FFF3FFF3FFF3FC0
:04400E00E42CFF3F60
:00000001FF
