:060000000A128A11FA2F1A
:100F8200831203130C1CC62FC72FCE2F0130F0077C
:100F92000318F10A0030F1070C100800831603133E
:100FA2008701831203138701B13090000B308F0049
:100FB200DC308E000A128A11C1270A128A1102300D
:100FC20070067104031DE62FE72FEA2F8312031325
:100FD2000714043070067104031DF02FF12FDB2F6C
:100FE200831203130710F001F101DB2F0A128A1199
:0E0FF2000028F001F10183010A128A11CF2FAD
:08400000FF3FFF3FFF3FFF3FC0
:04400E00E42CFF3F60
:00000001FF
