:100000000A128A11DD2FFF1B0D2883137F18831717
:100010000008840A0319FF0A080000308A00040857
:10002000840A820700344134553454344F344D34FB
:10003000413454344934433420344D344F344434FF
:10004000453400344D3441344E34553441344C340D
:1000500020344D344F344434453400345334503418
:100060004534453444343134003420342034203491
:1000700000344F344634463400343234343400349F
:0C00800031343934003432343934003467
:1008E00001340034023400340130F0020030031CC3
:1008F000F103F102700A031D812C710A031D812C82
:10090000822C742C08007218862C8A2C83120313F4
:1009100009148D2C831203130910740888000A121D
:100920008A1195240A128A1108008312031389146C
:100930000A30F0000030F1000A128A1174240A1201
:100940008A118312031389100A30F0000030F1007D
:100950000A128A1174240A128A110800F600F7019B
:10096000F801D52C0030F200F30077087607F40088
:100970000A128A1183240A128A110130F20000300F
:10098000F3007708750784000A128A110D200A12F5
:100990008A11F4000A128A1183240A128A11013082
:1009A000F7070318F80A0030F8077708750784007E
:1009B0000A128A110D200A128A11003A031DE12C35
:1009C000E22CB22C0800F501F601092D750870071C
:1009D000F3007108F2000318F20AF51FF02CF2037D
:1009E0007208F400740883120313FF007308840074
:1009F0000A128A1103200A128A1199000C1E012D75
:100A0000022DFE2C0C120130F5070318F60A0030F7
:100A1000F60775087007F3007108F2000318F20A70
:100A2000F51F132DF2037208F400740883120313E8
:100A3000FF00730884000A128A1103200A128A1127
:100A4000003A031D242D252DE62C080083120313E4
:100A50008501E33083160313850083120313860197
:100A600083160313860183120313870180308316D4
:100A7000031387008312031388018316031388016D
:100A80008312031389018316031389018316031745
:100A900089018801193083160313990026309800C4
:100AA00090308312031398000030F200F3003830C6
:100AB000F4000A128A1183240A128A110030F2000B
:100AC000F3000C30F4000A128A1183240A128A11EE
:100AD0000030F200F300F401F40A0A128A118324B0
:100AE0000A128A110030F200F3008030F4000A127A
:100AF0008A1183240A128A1183120313051C812D83
:100B0000822DA72DA201A3011030F50080300A121A
:100B10008A11AE240A128A111C30F500C0300A1264
:100B20008A11AE240A128A110130F9000030FA004D
:100B30002E30F0008030F1000A128A11E3240A12EC
:100B40008A11831203130518A62DA72DA12D851C2C
:100B5000AA2DAB2DBF2D0130A2000030A300003024
:100B6000F200F300F401F40A0A128A1183240A1233
:100B70008A11831203138518BE2DBF2DB92D2203B0
:100B80002304031DC42DC52D582F20032104031D4C
:100B9000CA2DCB2DE12D0130F50080300A128A11CB
:100BA000AE240A128A110030F200F300C030F400C3
:100BB0000A128A1183240A128A1183120313A001D4
:100BC000A1018611061186100614851FE82DE92D56
:100BD000062E7B08243E84003130831380000130D0
:100BE000F2000030F3003130F4000A128A1183243D
:100BF0000A128A110130FB070318FC0A0030FC07B7
:100C000083120313851B052E062E002E051F092EA9
:100C10000A2E272E7B08243E840032308313800066
:100C20000130F2000030F3003230F4000A128A1171
:100C300083240A128A110130FB070318FC0A0030D2
:100C4000FC0783120313051B262E272E212E851E3B
:100C50002A2E2B2E482E7B08243E8400333083130B
:100C600080000130F2000030F3003330F4000A124B
:100C70008A1183240A128A110130FB070318FC0A27
:100C80000030FC0783120313851A472E482E422E8C
:100C90008611061106108614851F4F2E502E6D2EBC
:100CA0007B08243E84003430831380000130F2003E
:100CB0000030F3003430F4000A128A1183240A123F
:100CC0008A110130FB070318FC0A0030FC0783126D
:100CD0000313851B6C2E6D2E672E051F702E712E33
:100CE0008E2E7B08243E8400353083138000013033
:100CF000F2000030F3003530F4000A128A11832428
:100D00000A128A110130FB070318FC0A0030FC07A5
:100D100083120313051B8D2E8E2E882E851E912E79
:100D2000922EAF2E7B08243E840036308313800041
:100D30000130F2000030F3003630F4000A128A115C
:100D400083240A128A110130FB070318FC0A0030C1
:100D5000FC0783120313851AAE2EAF2EA92E86111F
:100D6000061086100615851FB62EB72ED42E7B08CA
:100D7000243E84003730831380000130F2000030BD
:100D8000F3003730F4000A128A1183240A128A1100
:100D90000130FB070318FC0A0030FC078312031321
:100DA000851BD32ED42ECE2E051FD72ED82EF52E52
:100DB0007B08243E84003830831380000130F20029
:100DC0000030F3003830F4000A128A1183240A122A
:100DD0008A110130FB070318FC0A0030FC0783125C
:100DE0000313051BF42EF52EEF2E851EF82EF92E7B
:100DF000162F7B08243E8400393083138000013095
:100E0000F2000030F3003930F4000A128A11832412
:100E10000A128A110130FB070318FC0A0030FC0794
:100E200083120313851A152F162F102F0610061183
:100E300086108615851F1D2F1E2F372F2430F0009A
:100E40000030F1000A128A11E3240A128A11FB0110
:100E5000FC012330F500C0300A128A11AE240A12B8
:100E60008A1183120313851B362F372F312F051F4D
:100E70003A2F3B2F582F7B08243E840030308313B9
:100E800080000130F2000030F3003030F4000A122C
:100E90008A1183240A128A110130FB070318FC0A05
:100EA0000030FC0783120313051B572F582F522FB6
:100EB00022082304031D5D2F5E2F7C2D051C612F4E
:100EC000622F7C2D0130F9070318FA0A0030FA0767
:100ED000043079067A04031D6E2F6F2F872F0030A0
:100EE000F200F300F401F40A0A128A1183240A12B0
:100EF0008A112730F50081300A128A11AE240A12B5
:100F00008A11023083120313A2000030A3000230C2
:100F100079067A04031D8D2F8E2FAD2F0030F2003D
:100F2000F300C530F4000A128A1183240A128A11D0
:100F30000130F2000030F3007908303EF4000A126C
:100F40008A1183240A128A112B30F0008030F100BC
:100F50000A128A11E3240A128A11033079067A04EC
:100F6000031DB32FB42FD32F0030F200F300C53090
:100F7000F4000A128A1183240A128A110130F20045
:100F80000030F3007908303EF4000A128A118324FD
:100F90000A128A113130F0008030F1000A128A11F1
:100FA000E3240A128A11831203130518D82FD92FAC
:100FB000D32F7C2D0A128A1100280A128A1170245C
:100FC0000A128A11A0000A128A1171240A128A11C7
:100FD000A1000A128A1172240A128A11A2000A12AE
:100FE0008A1173240A128A11A300A401A501A60183
:100FF000F901FA01FB01FC0183010A128A11262D75
:08400000FF3FFF3FFF3FFF3FC0
:04400E00E42CFF3F60
:00000001FF
