:020000040800F2
:100000007006002089010008910100089301000892
:100010009501000897010008990100080000000000
:100020000000000000000000000000009B0100082C
:100030009D010008000000009F010008A1010008C8
:10004000A3010008A3010008A3010008A301000800
:10005000A3010008A3010008A3010008A3010008F0
:10006000A3010008A3010008A3010008A3010008E0
:10007000A3010008A3010008A3010008A3010008D0
:10008000A3010008A3010008A3010008A3010008C0
:10009000A3010008A3010008A3010008A3010008B0
:1000A000A3010008A3010008A3010008A3010008A0
:1000B000A3010008A301000800000000A30100083C
:1000C000A301000800000000000000004502000835
:1000D00000000000A3010008A301000800000000C8
:1000E000A3010008A3010008A301000800F002F822
:1000F00000F03AF80AA090E8000C82448344AAF188
:100100000107DA4501D100F02FF8AFF2090EBAE885
:100110000F0013F0010F18BFFB1A43F0010318473B
:1001200098030000B8030000103A24BF78C878C1D3
:10013000FAD8520724BF30C830C144BF04680C60ED
:10014000704700000023002400250026103A28BF35
:1001500078C1FBD8520728BF30C148BF0B60704739
:100160001FB51FBD10B510BD00F031F81146FFF7E7
:10017000F7FF00F05FF900F04FF803B4FFF7F2FF6C
:1001800003BC00F057F800000948804709480047C1
:10019000FEE7FEE7FEE7FEE7FEE7FEE7FEE7FEE737
:1001A000FEE7FEE704480549054A064B7047000094
:1001B00071030008ED0000087000002070060020A8
:1001C000700200207002002070477047704775462B
:1001D00000F02CF8AE4605006946534620F00700B3
:1001E000854618B020B5FFF7DDFFBDE820404FF091
:1001F00000064FF000074FF000084FF0000B21F011
:100200000701AC46ACE8C009ACE8C009ACE8C009DD
:10021000ACE8C0098D46704710B50446AFF30080C6
:100220002046BDE81040FFF7A8BF00000048704717
:100230000C00002001491820ABBEFEE7260002009A
:100240007047000010B50D48008900F0010098B11A
:100250000A488089C4B22146012000F0D5F8084838
:1002600001680068401C064A10600648405C03496B
:1002700088810020088100BF10BD000000300140CF
:10028000000000200400002010B500F001F810BDAF
:100290000CB50020019000903348006840F4803095
:1002A0003149086000BF3048006800F40030009019
:1002B0000198401C0190009818B90198B0F5A06F02
:1002C000F1D12948006800F4003010B101200090FD
:1002D00001E0002000900098012843D123480068E5
:1002E00040F01000214908600846006820F0030033
:1002F00008600846006840F0020008601A4840683C
:10030000194948600846406848600846406840F41B
:10031000806048600846406820F47C1048600846C9
:10032000406840F4E81048600846006840F080707B
:10033000086000BF0C48006800F000700028F9D089
:100340000948406820F003000749486008464068B3
:1003500040F00200486000BF0348406800F00C0015
:100360000828F9D10CBD0000001002400020024016
:1003700010B51348006840F00100114908600846B4
:100380004068104908400E494860084600680E4918
:1003900008400B4908600846006820F48020086087
:1003A0000846406820F4FE0048604FF41F00886053
:1003B000FFF76AFF4FF000600449086010BD0000BD
:1003C000001002400000FFF8FFFFF6FE08ED00E01D
:1003D00000BF011EA0F10100FBD1704700B5094824
:1003E000C06840F480400749C8604FF4FA70FFF7D6
:1003F000EFFF4FF48040034948614FF4FA70FFF774
:10040000E7FF00BD0010014010B504460B46E003B5
:100410000649C860180906490860FFF7DFFF03F0C6
:100420000F0003490860FFF7D9FF10BD001001401D
:100430000C08014083201B4908600020486041F2FD
:100440001D008861482018490880442088802320A6
:1004500000280DDB00BF00BF00F01F02012191400A
:100460004209920002F1E022C2F8001100BF00BF71
:1004700000BF0E480E49086000060E494860022180
:100480000020FFF7C1FF28210020FFF7BDFF0E214C
:100490000020FFF7B9FF80210020FFF7B5FF00BF64
:1004A000FEE7000000100240003001402222444AD2
:1004B0000008014000100140D8040008000000209E
:1004C0000C00000028010008E40400080C000020D3
:1004D0006406000044010008000000006D617374B0
:0404E0006572000041
:04000005080000ED02
:00000001FF
