:060000000A128A11EE2F26
:100DCC007334683461347234763465347334683413
:100DDC000034FF30F0070318F10AFF30F107700AF6
:100DEC00031DFC2E710A031DFC2EFD2EEF2E080098
:100DFC007E088A007F0882000A128A11FE260A12D7
:100E0C008A118000840A04087D0603190034FF0A45
:100E1C000319FE0A022F8312031389146430F000A5
:100E2C000030F1000A128A11EF260A128A1183127D
:100E3C00031389106430F0000030F1000A128A119B
:100E4C00EF260A128A11080072182D2F312F8312E7
:100E5C0003130914342F8312031309107408880028
:100E6C000A128A1111270A128A117408F60003302B
:100E7C000310F60DFF3E031D3E2F0310760D83125B
:100E8C00031388000A128A1111270A128A1108000A
:100E9C0083120313880189018316031388018901C6
:100EAC0083160317890188010030F200F300283003
:100EBC00F4000030F5000A128A112A270A128A114E
:100ECC000030F200F3000E30F4000030F5000A128E
:100EDC008A112A270A128A11803083120313A9005F
:100EEC000030AA00C030AB000030AC0020308400D1
:100EFC003130F7000408F8000930F9007708840055
:100F0C0083130008FA00F70A780884007A08800036
:100F1C00F80AF90B842F0230AD000030AE00AF019F
:100F2C00B001E22F2D189B2F9C2FC32F0030F20005
:100F3C00F3002F082907F40030080318300A2A0799
:100F4C00F5000A128A112A270A128A110130F200BE
:100F5C000030F300831203132F08203E8400831308
:100F6C000008F700F8017708F4007808F5000A1279
:100F7C008A112A270A128A11D42F0030F200F300AA
:100F8C002F082B07F40030080318300A2C07F50043
:100F9C000A128A112A270A128A11AC2F01308312E5
:100FAC000313AD070318AE0A0030AE070130AF07CC
:100FBC000318B00A0030B0072F08203E84008313BA
:100FCC000008031DEA2FEB2F982F0A128A11002814
:100FDC0083133A30FD000630FE00E630FF0031305E
:100FEC0084000A128A1102270A128A1183010A123A
:040FFC008A114E2FD9
:08400000FF3FFF3FFF3FFF3FC0
:04400E00E42CFF3F60
:00000001FF
