:060000000A128A11F82F1C
:10001400FF30F0070318F10AFF30F107700A031DDF
:100024001728710A031D172818280A2808008312A4
:10003400031341088039CB004108C2004207D200B3
:10004400C01F2528262827285214520803192B28B4
:100054002C283C28520A031D302831283928003026
:10006400C1000030C0000030BF000030BE00C01727
:10007400C10144280030C1000030C0000030BF007E
:100084000030BE003D088039C2004208CB063D085E
:10009400C2004207D300BC1F5028512852285314D1
:1000A40053080319562857286728530A031D5B2849
:1000B4005C2864280030BD000030BC000030BB0068
:1000C4000030BA00BC17BD016F280030BD000030FD
:1000D400BC000030BB000030BA003D083C043B04C7
:1000E4003A04031D7628772890280030C100003098
:1000F400C0000030BF000030BE008030C0047F303C
:10010400C1044B08C2004208C1044108BD004008B4
:10011400BC003F08BB003E08BA00EB295208031D8F
:10012400942895289E280030BD000030BC00003083
:10013400BB000030BA00EB295208C200C3014308D7
:10014400C50053084202C400031CC50344087F3E93
:10015400CC0045080318013E003ECD004108CA000A
:100164004008C9003F08C8003E08C7000030C1006D
:100174000030C0000030BF000030BE000030D100AD
:100184000030D0000030CF000030CE00D30114295D
:1001940053080319CE28CF28EF280130C2000310DA
:1001A400C70DC80DC90DCA0DC20BD1280130C2003C
:1001B4000310BE0DBF0DC00DC10DC20BDA28D11F37
:1001C400E428E528E6283E140130C2000310CE0DD1
:1001D400CF0DD00DD10DC20BE8283D084A02031DF6
:1001E400FD283C084902031DFD283B084802031D65
:1001F400FD283A084702031C002901291029511738
:100204003A08C7023B08031C3B0FC8023C08031C06
:100214003C0FC9023D08031C3D0FCA020130C20055
:100224004208D3071A305302031C19291A29CA2871
:100234004A08490448044704031921292229412969
:100244004E1441290130C2000310BE0DBF0DC00D74
:10025400C10DC20B2629D11F3029312932293E1460
:100264000130C2000310CE0DCF0DD00DD10DC20B45
:100274003429FF30CC070318CD0AFF30CD07C01F47
:10028400442945292429D301D11F49294A2966290A
:10029400FF304E05C200FF304F05C300FF3050054C
:1002A400C4007F305105C50045084404430442049A
:1002B40003195D295E296129D301D30A66293E1CED
:1002C4006429652966295E29530803196A296B295B
:1002D4009C290130BE07003003180130BF070030ED
:1002E40003180130C007003003180130C107411C56
:1002F4007C297D299C293E08C2003F08C300400890
:10030400C4004108C5000130C600450DC50CC40C2D
:10031400C30CC20CC60B87294508C1004408C000A1
:100324004308BF004208BE000130CC070318CD0AC1
:100334000030CD074D08803AFF0080307F02031D56
:10034400A529FF304C02031CA829A929B729FF308D
:1003540083120313CC000030CD000030C100003004
:10036400C0000030BF000030BE00831203134D08EC
:10037400803AFF0080307F02031DC22901304C0205
:100384000318C529C629D32983120313CC01CD012F
:100394000030C1000030C0000030BF000030BE009B
:1003A400CB01831203134C08D200521CDA29DB2937
:1003B400DD29C017E1297F30C2004208C005520878
:1003C400C2000310420CC1004B08C2004208C10421
:1003D40087280800831203139F14F6291E08831626
:1003E4000313BD001E08BC0083129F18FA29FB29C1
:1003F400F029FF30A4000330A500831603133D0841
:1004040083120313A700831603133C0883120313F8
:10041400A6000A128A150C260A128A1183120313E3
:10042400250883160313A1008312031324088316DB
:100434000313A0008030F20000300A128A156725E9
:100444000A128A11E830F6000330F700831603130A
:100454003D08F9003C08F8000A128A1567260A12BA
:100464008A11770883160313A3007608A2002208D2
:10047400303EF20001300A128A1567250A128A11E9
:100484000A3083120313A4000030A5006430F60080
:100494000030F700831603133D08F9003C08F80008
:1004A4000A128A1567260A128A117708831203131F
:1004B400A7007608A6000A128A150C260A128A11C9
:1004C40083120313250883160313A5008312031351
:1004D400240883160313A4002408303EF2000130DC
:1004E4000A128A1567250A128A110A308312031325
:1004F400A4000030A5000A30F6000030F70083168F
:1005040003133D08F9003C08F8000A128A1567260F
:100514000A128A11770883120313A7007608A6002B
:100524000A128A150C260A128A118312031325084B
:1005340083160313A70083120313240883160313DB
:10054400A6002608303EF20001300A128A156725FB
:100554000A128A110A3083120313A4000030A50082
:10056400831603133D0883120313A7008316031392
:100574003C0883120313A6000A128A150C260A12D9
:100584008A1183120313250883160313A900831207
:100594000313240883160313A8002808303EF2002E
:1005A40001300A128A1567250A128A112E30F200C8
:1005B40001300A128A1567250A128A11FF30F600E3
:1005C4000330F700831603132108F1002008F0001C
:1005D4000A30F2000030F3000A128A158B250A1241
:1005E4008A117108F9007008F8000A128A15672642
:1005F4000A128A11770883160313AB007608AA003F
:100604002A08303EF20001300A128A1567250A12C0
:100614008A112030F20001300A128A1567250A1265
:100624008A11FF30F6000330F700831603133D08E8
:10063400F1003C08F0000530F2000030F3000A122B
:100644008A158B250A128A117108F9007008F800BE
:100654000A128A1567260A128A1177088316031369
:10066400AD007608AC000A3083120313A4000030F6
:10067400A500831603132D0883120313A700831602
:1006840003132C0883120313A6000A128A150C26DE
:100694000A128A1183120313250883160313AF0069
:1006A40083120313240883160313AE002E08303E6E
:1006B400F20001300A128A1567250A128A112E30B7
:1006C400F20001300A128A1567250A128A1183166C
:1006D40003133D08F1003C08F0000530F20000303F
:1006E400F3000A128A158B250A128A1171088312E3
:1006F4000313A7007008A600FF30A4000330A50070
:100704000A128A150C260A128A1183120313250869
:1007140083160313B90083120313240883160313E7
:10072400B800FF30F6000330F7003908F10038084C
:10073400F0000A30F2000030F3000A128A158B250B
:100744000A128A117108F9007008F8000A128A1551
:1007540067260A128A11770883160313B1007608F4
:10076400B0003008303EF20001300A128A156725C5
:100774000A128A112030F20001300A128A15672504
:100784000A128A11831603133C08F0003D08F10095
:100794000030F11BFF30F200F30001300A128A1519
:1007A40048270A128A11730883120313A7007208D8
:1007B400A6007108A5007008A4004230A300C83048
:1007C400A2000030A1000030A0000A128A11B32454
:1007D4000A128A11831203132308C1002208C000DD
:1007E4002108BF002008BE004430BD007F30BC009B
:1007F400C030BB000030BA000A128A1119200A1254
:100804008A11831203133D08D7003C08D6003B0825
:10081400D5003A08D4000A128A15D0260A128A1181
:1008240083120313550883160313BB0083120313A7
:10083400540883160313BA003B08803AFF00803043
:100844007F02031D272C64303A02031C2A2C2B2C14
:10085400492C6430F6000030F700831603133B087C
:10086400F9003A08F8000A128A1567260A128A1152
:10087400770883160313B3007608B2003208303EBB
:10088400F20001300A128A1567250A128A110A3009
:1008940083120313A4000030A5000A30F6000030D0
:1008A400F700831603133B08F9003A08F8000A120C
:1008B4008A1567260A128A11770883120313A70080
:1008C4007608A6000A128A150C260A128A118312C7
:1008D4000313250883160313B50083120313240896
:1008E40083160313B4003408303EF20001300A12B8
:1008F4008A1567250A128A110A3083120313A40089
:100904000030A500831603133B0883120313A700CA
:10091400831603133A0883120313A6000A128A15D6
:100924000C260A128A118312031325088316031353
:10093400B70083120313240883160313B600360882
:10094400303EF20001300A128A1567250A128A1114
:100954002530F20001300A128A1567250A128A111D
:1009640008008312031323088039AD002308A8006C
:100974002807B300A21FBF2CC02CC12C331433088A
:100984000319C52CC62CD52C330A031DCA2CCB2C19
:10099400D32C0030A3000030A2000030A1000030AE
:1009A400A000A217DD2C0030A3000030A20000300C
:1009B400A1000030A00027088039A8002808AD064F
:1009C4002708A8002807B200A61FE92CEA2CEB2C64
:1009D400321432080319EF2CF02CFF2C320A031DB9
:1009E400F42CF52CFD2C0030A7000030A6000030BC
:1009F400A5000030A400A617072D0030A700003082
:100A0400A6000030A5000030A400320803190B2D05
:100A14000C2D112D3308031D102D112D1A2D00300E
:100A2400A3000030A2000030A1000030A000F72F86
:100A34002008F00026080A128A15B0250A128A1125
:100A4400710883120313B9007008B8003808A800AD
:100A5400A901AA01AB012B08B1002A08B00029089A
:100A6400AF002808AE003908A800A901AA01AB010B
:100A74002B08B7002A08B6002908B5002808B400D6
:100A84002108F00025080A128A15B0250A128A11D5
:100A9400710883120313B9007008B8003808A8005D
:100AA400A901AA01AB012808AE07290803110318FC
:100AB400013E03195E2DAF072A0803110318013EF6
:100AC4000319652DB0072B0803110318013E031900
:100AD4006C2DB1073908A800A901AA01AB012808A7
:100AE400B407290803110318013E03197A2DB50729
:100AF4002A0803110318013E0319812DB6072B0898
:100B040003110318013E0319882DB7072208F000CA
:100B140024080A128A15B0250A128A117108831250
:100B24000313B9007008B8003808A800A901AA0185
:100B3400AB012808AE07290803110318013E031965
:100B4400A42DAF072A0803110318013E0319AB2D86
:100B5400B0072B0803110318013E0319B22DB10786
:100B64003908A800A901AA01AB012808B40729087B
:100B740003110318013E0319C02DB5072A080311F8
:100B84000318013E0319C72DB6072B0803110318D8
:100B9400013E0319CE2DB7070830A8000310AE0D8F
:100BA400AF0DB00DB10DA80BD02D2108F000240815
:100BB4000A128A15B0250A128A11710883120313C6
:100BC400B9007008B8003808A8003908A900AA01BB
:100BD400AB012808AE07290803110318013E0319C5
:100BE400F42DAF072A0803110318013E0319FB2D46
:100BF400B0072B0803110318013E0319022EB10795
:100C04002008F00025080A128A15B0250A128A1154
:100C1400710883120313B9007008B8003808A800DB
:100C24003908A900AA01AB012808AE072908031155
:100C34000318013E03191F2EAF072A0803110318D6
:100C4400013E0319262EB0072B0803110318013E99
:100C540003192D2EB1070830A8000310AE0DAF0DF7
:100C6400B00DB10DA80B2F2E2008F00024080A1295
:100C74008A15B0250A128A11710883120313B90068
:100C84007008B8003808A8003908A900AA01AB0107
:100C94002808AE07290803110318013E0319532E2F
:100CA400AF072A0803110318013E03195A2EB0078F
:100CB4002B0803110318013E0319612EB107210803
:100CC400F00026080A128A15B0250A128A11710842
:100CD40083120313B9007008B8003808A800390853
:100CE400A900AA01AB012808B407290803110318B5
:100CF400013E03197E2EB5072A0803110318013E8D
:100D04000319852EB6072B0803110318013E031996
:100D14008C2EB7072208F00025080A128A15B02580
:100D24000A128A11710883120313B9007008B800FB
:100D34003808A8003908A900AA01AB012808B4079B
:100D4400290803110318013E0319A92EB5072A081F
:100D540003110318013E0319B02EB6072B08031123
:100D64000318013E0319B72EB7072208F00026081E
:100D74000A128A15B0250A128A1171088312031304
:100D8400B9007008B8003808A8003908A900AA01F9
:100D9400AB0108300310A80DA90DAA0DAB0DFF3E41
:100DA400031DCC2E2808B407290803110318013E9B
:100DB4000319DD2EB5072A0803110318013E031990
:100DC400E42EB6072B0803110318013E0319EB2E7A
:100DD400B7072E08A8002F08A9003008AA00310878
:100DE400AB0018300310AB0CAA0CA90CA80CFF3EE6
:100DF400031DF42E2808B407290803110318013E23
:100E04000319052FB5072A0803110318013E031916
:100E14000C2FB6072B0803110318013E0319132FD7
:100E2400B7070830A8000310AE0DAF0DB00DB10D1B
:100E3400A80B152F33083207A800A901A90D28080B
:100E4400823EB80029080318013EFF3EB900472F2F
:100E54000130A8000310B40DB50DB60DB70DA80BE5
:100E64002C2FB11F362F372F382F34140130A80000
:100E74000310AE0DAF0DB00DB10DA80B3A2FFF301E
:100E8400B8070318B90AFF30B907B61F4A2F4B2F0A
:100E94002A2FB201B11F4F2F502F6C2FFF302E0578
:100EA400A800FF302F05A900FF303005AA007F30CD
:100EB4003105AB002B082A04290428040319632FE5
:100EC400642F672FB201B20A6C2F341C6A2F6B2F68
:100ED4006C2F642F32080319702F712FA22F013049
:100EE400B407003003180130B5070030031801308F
:100EF400B607003003180130B707371C822F832F41
:100F0400A22F3408A8003508A9003608AA0037081B
:100F1400AB000130AC002B0DAB0CAA0CA90CA80C37
:100F2400AC0B8D2F2B08B7002A08B6002908B50092
:100F34002808B4000130B8070318B90A0030B9070B
:100F44003908803AFF0080307F02031DAB2FFF3049
:100F54003802031CAE2FAF2FBA2F7F308312031336
:100F6400B7008030B6000030B5000030B400EB2F7D
:100F7400831203133908803AFF0080307F02031D77
:100F8400C52F013038020318C82FC92FD52F0030C0
:100F940083120313B7000030B6000030B5000030F0
:100FA400B400AD01EB2F831203133808B300FF30F4
:100FB400B405FF30B5057F30B6050030B705331CE6
:100FC400E42FE52FE62FB6173308A8000310280CEA
:100FD400B7002D08A8002808B7043708A30036086E
:100FE400A2003508A1003408A000080083160313EA
:0C0FF400BC01BD0183010A128A15D72D33
:101ACE00F30073186B2D6F2D831203130914722DEF
:101ADE008312031309107208880089146430F00011
:101AEE000030F1000A128A110A200A128A15831296
:101AFE00031389106430F0000030F1000A128A11CD
:101B0E000A200A128A150800F401F501701C902DA6
:101B1E00912D972D7208F4070318F50A7308F5072F
:101B2E0001300310F20DF30DFF3E031D982D013011
:101B3E000310F10CF00CFF3E031D9F2D7008710475
:101B4E00031DAA2DAB2D8D2D7508F1007408F00024
:101B5E000800F800F401F5017008F200F3017208B4
:101B6E00F6007308F700781CBD2DBE2DC42D760827
:101B7E00F4070318F50A7708F50701300310F60D80
:101B8E00F70DFF3E031DC52D0310F80C7808031D3D
:101B9E00D12DD22DBA2D7508F1007408F000080071
:101BAE008312031385010130831603138500880108
:101BBE0083120313880183160313890183120313FF
:101BCE00890181309F008030831603139F000130FE
:101BDE0083160317880089013830F20000300A128C
:101BEE008A1567250A128A150C30F20000300A1287
:101BFE008A1567250A128A150A128A11EC210A1211
:101C0E008A15032E0A128A110028FD01831203136E
:101C1E00A71F122E132E1A2EA609A709A60A0319FC
:101C2E00A70AFD01FD0AA51F1D2E1E2E232EA40997
:101C3E00A509A40A0319A50A240825040319282EA8
:101C4E00292E582EFC01FC0A372E01300310A40D4C
:101C5E00A50DFF3E031D2D2E0130FB007B08FC075A
:101C6E00A51F3A2E3B2E2C2E25082702031D412E92
:101C7E0024082602031C442E452E4B2E2408A602B1
:101C8E002508031CA703A70201300310A50CA40C02
:101C9E00FF3E031D4C2E0130FC02031D572E582E05
:101CAE003B2E7D0803195C2E5D2E622EA609A70918
:101CBE00A60A0319A70A2708A5002608A4000800EB
:101CCE0083120313A101F71F6D2E6E2E752EF609CA
:101CDE00F709F60A0319F70AA101A10AF91F782ECE
:101CEE00792E822EF809F909F80A0319F90A01303A
:101CFE00FA007A08A106A201A30176087704031957
:101D0E00892E8A2EC12EA001A00A982E0130031012
:101D1E00F60DF70DFF3E031D8E2E0130FA007A08E8
:101D2E00A007F71F9B2E9C2E8D2E01300310A20DA7
:101D3E00A30DFF3E031D9D2E77087902031DA92ECC
:101D4E0076087802031CAC2EAD2EB42E7608F8025F
:101D5E007708031CF903F902221401300310F70C63
:101D6E00F60CFF3E031DB52E0130A002031DC02E42
:101D7E00C12E9C2E21080319C52EC62ECB2EA209CC
:101D8E00A309A20A0319A30A2308F7002208F600E2
:101D9E000800031083120313560D570DDD005D0866
:101DAE00031DDA2EDB2EE42E0030D7000030D600D5
:101DBE000030D5000030D400472F5408D800550805
:101DCE00D9005608DA005708DB001F300310DB0C71
:101DDE00DA0CD90CD80CFF3E031DED2E5808DC0092
:101DEE00D617FF30D405FF30D505FF30D6050030AD
:101DFE00D7059630DD02DD1F052F062F202F5D083B
:101E0E00803A973E03180C2F0D2F0E2FDB2E01302C
:101E1E000310D70CD60CD50CD40CFF3E031D0F2F80
:101E2E000130D8005808DD07031D1E2F1F2F0E2F5F
:101E3E00372F20305D02031C252F262F322FDB2E4D
:101E4E000130D8000310D40DD50DD60DD70DD80BFB
:101E5E00292F0130DD025D08031D362F372F272F66
:101E6E005C0803193B2F3C2F472FD409D509D609FF
:101E7E00D709D40A0319D50A0319D60A0319D70AA2
:101E8E000800F800780803194D2F4E2F622FF31F0C
:101E9E00512F522F622F7009FA007109FB0072093F
:101EAE00FC007309FD00FA0A0319FB0A0319FC0A68
:101EBE000319FD0A6A2F7308FD007208FC007108F1
:101ECE00FB007008FA007308720471047004031D9D
:101EDE00712F722F7B2F0030F3000030F200003094
:101EEE00F1000030F000FF2F9630F9008B2F0130FB
:101EFE00F4007408F90701300310FD0CFC0CFB0C08
:101F0E00FA0CFF3E031D832FFE307D05031D902F1F
:101F1E00912F7E2FAD2F0130F4007408F907013098
:101F2E00FA07003003180130FB07003003180130A8
:101F3E00FC07003003180130FD0701300310FD0CC3
:101F4E00FC0CFB0CFA0CFF3E031DA52FFF307D058C
:101F5E00031DB22FB32F922FBF2F0130F902013084
:101F6E00F4000310FA0DFB0DFC0DFD0DF40BB82F54
:101F7E00FC1BC22FC32FC92F023079020318C82FA2
:101F8E00C92FB42F7918CC2FCD2FD52FFF30FA05AE
:101F9E00FF30FB057F30FC05FF30FD050310F90C0B
:101FAE007908F400F501F601F70118300310F40D6D
:101FBE00F50DF60DF70DFF3E031DDD2F7408FA0427
:101FCE007508FB047608FC047708FD0478080319ED
:101FDE00F12FF22FF72FF31FF52FF62FF72FFD17F7
:101FEE007D08F3007C08F2007B08F1007A08F0000F
:021FFE000800D9
:08400000FF3FFF3FFF3FFF3FC0
:04400E00E42CFF3F60
:00000001FF
