:060000000A128A11FC2F18
:100CEA0083160313911483128C1D7C2E7D2E782E6D
:100CFA008C11080083160313111483128C1D862E7F
:100D0A00872E822E8C110800831603131115831265
:100D1A008C1D902E912E8C2E8C110800F0008316BB
:100D2A000313111770088312031393008C1D9E2E50
:100D3A009F2E9B2E8C1108000130F0020030031CFC
:100D4A00F103F102700A031DAE2E710A031DAE2EC5
:100D5A00AF2EA12E08007218B32EB72E83120313DA
:100D6A000914BA2E831203130910740888000A1290
:100D7A008A11D5260A128A110800F0007008831217
:100D8A0003139300831603131418CC2ECD2EC72EEB
:100D9A00111BD02ED12ECD2E831203138C110800D5
:100DAA008312031389140A30F0000030F1000A128A
:100DBA008A11A1260A128A118312031389100A3092
:100DCA00F0000030F1000A128A11A1260A128A11D3
:100DDA000800F0008316031391157018F52EF92EEA
:100DEA00831603139116FC2E831603139112141CF7
:100DFA00FF2E002FFC2E831203131308F100831613
:100E0A000313111683128C1D0B2F0C2F072F8C1511
:100E1A00710808008312031387011830831603131D
:100E2A008700831203138801831603138801831230
:100E3A000313890183160313890183160317890192
:100E4A008801283083120313940080308316031319
:100E5A00940091010A128A117F260A128A11A0307F
:100E6A000A128A11C2260A128A1100300A128A113B
:100E7A00C2260A128A1131300A128A1193260A12DC
:100E8A008A1132300A128A1193260A128A113330D1
:100E9A000A128A1193260A128A110A128A118926BB
:100EAA000A128A116430F0000030F1000A128A1125
:100EBA00A1260A128A110030F200F3003830F40039
:100ECA000A128A11B0260A128A110030F200F300BF
:100EDA000E30F4000A128A11B0260A128A11003062
:100EEA00F200F300F401F40A0A128A11B0260A1277
:100EFA008A110030F200F3008030F4000A128A11DD
:100F0A00B0260A128A110A128A117F260A128A1137
:100F1A00A0300A128A11C2260A128A1100300A1255
:100F2A008A11C2260A128A1100300A128A11C226AE
:100F3A000A128A110A128A1175260A128A11A13016
:100F4A000A128A11C2260A128A1100300A128A115A
:100F5A00EE260A128A11F50000300A128A11EE26CC
:100F6A000A128A11F60001300A128A11EE260A12B2
:100F7A008A11F7000A128A1189260A128A11003088
:100F8A00F200F3008030F4000A128A11B0260A1225
:100F9A008A110130F2000030F3007508F4000A12D9
:100FAA008A11B0260A128A110130F2000030F300C9
:100FBA007608F4000A128A11B0260A128A11013040
:100FCA00F2000030F3007708F4000A128A11B02602
:100FDA000A128A116430F0000030F1000A128A11F4
:100FEA00A1260A128A11882F0A128A11002883015F
:060FFA000A128A110F2FFC
:08400000FF3FFF3FFF3FFF3FC0
:04400E00E42CFF3F60
:00000001FF
