:100000000A128A11FC2F00308A000408840A820731
:1000100000346D3461346E34663472346534653462
:020020000034AA
:100EF400FF30F0070318F10AFF30F107700A031DF1
:100F0400872F710A031D872F882F7A2F0800F50079
:100F14009D2F750884000A128A1103200A128A116F
:100F2400F20001300A128A11AA270A128A1101302A
:100F3400F4007408F507750884000A128A11032066
:100F44000A128A11003A031DA82FA92F8B2F08001B
:100F5400F3007318AE2FB22F831203130914B52FA5
:100F64008312031309107208880089146430F00096
:100F74000030F1000A128A117A270A128A118312A8
:100F8400031389106430F0000030F1000A128A1152
:100F94007A270A128A11080083120313880189012F
:100FA40083160313880189018316031789018801B5
:100FB4003830F20000300A128A11AA270A128A1164
:100FC4000C30F20000300A128A11AA270A128A1180
:100FD4008030F20000300A128A11AA270A128A11FC
:100FE40001300A128A1189270A128A11EA2F0A1279
:0C0FF4008A11002883010A128A11CE2FF6
:08400000FF3FFF3FFF3FFF3FC0
:04400E00E42CFF3F60
:00000001FF
