:060000000A128A11FC2F18
:100D0800FF30F0070318F10AFF30F107700A031DDE
:100D1800912E710A031D912E922E842E0800F30045
:100D2800831203130910730888000A128A11A9266E
:100D38000A128A11831203130914720888000A120E
:100D48008A11A9260A128A1108008312031389142A
:100D58006430F0000030F1000A128A1184260A1269
:100D68008A118312031389106430F0000030F100F7
:100D78000A128A1184260A128A11080083120313A0
:100D8800850186018701880189018316031385017E
:100D98008601FF30870088018901831603178901BE
:100DA8008801FF30F400FF30F500831203130910A7
:100DB800383088000A128A11A9260A128A110C30C2
:100DC8008312031388000A128A11A9260A128A11AB
:100DD800831203138611061186100614071CF52EBC
:100DE800F62E0B2F0130F4070318F50A0030F5072B
:100DF8003130F2007408803E0A128A1193260A12D2
:100E08008A118312031307180A2F0B2F052F871C2B
:100E18000E2F0F2F242F0130F4070318F50A003086
:100E2800F5073230F2007408803E0A128A119326C0
:100E38000A128A11831203138718232F242F1E2FB7
:100E4800071D272F282F3D2F0130F4070318F50A17
:100E58000030F5073330F2007408803E0A128A1118
:100E680093260A128A118312031307193C2F3D2F68
:100E7800372F0610861106118614071C442F452F9C
:100E88005A2F0130F4070318F50A0030F5073430FB
:100E9800F2007408803E0A128A1193260A128A11F7
:100EA800831203130718592F5A2F542F871C5D2FAD
:100EB8005E2F732F0130F4070318F50A0030F50789
:100EC8003530F2007408803E0A128A1193260A12FD
:100ED8008A11831203138718722F732F6D2F071D22
:100EE800762F772F8C2F0130F4070318F50A00307E
:100EF800F5073630F2007408803E0A128A119326EC
:100F08000A128A118312031307198B2F8C2F862F2D
:100F18008611061086100615071C932F942FA92FEB
:100F28000130F4070318F50A0030F5073730F200EE
:100F38007408803E0A128A1193260A128A118312B3
:100F480003130718A82FA92FA32F871CAC2FAD2F89
:100F5800C22F0130F4070318F50A0030F5073830BE
:100F6800F2007408803E0A128A1193260A128A1126
:100F7800831203138718C12FC22FBC2F071DC52F3B
:100F8800C62FDB2F0130F4070318F50A0030F507E8
:100F98003930F2007408803E0A128A1193260A1228
:100FA8008A11831203130719DA2FDB2FD52F0610A6
:100FB800061186108615871CE22FE32FEC2E0130D0
:100FC800F4070318F50A0030F5073030F20074080A
:100FD800803E0A128A1193260A128A118312031379
:100FE8008718F72FF82FF22FEC2E0A128A110028F3
:080FF80083010A128A11C22EC6
:08400000FF3FFF3FFF3FFF3FC0
:04400E00E42CFF3F60
:00000001FF
