:100000000A128A11FB2F00308A000408840A820732
:1000100000343534423430343034313436343234D0
:0C00200035344234453444343634003466
:100F3A00F200F001F101B72F7008720784000A125B
:100F4A008A1103200A128A118312031399000C1EB4
:100F5A00AF2FB02FAC2F0C120130F0070318F10A93
:100F6A000030F1077008720784000A128A11032000
:100F7A000A128A11003A031DC32FC42FA12F080099
:100F8A00831203138501013083160313850083122C
:100F9A000313870180308316031387008312031318
:100FAA0086018316031386018316031789018801B4
:100FBA001930831603139900263098009030831253
:100FCA0003139800051CEA2FEB2FE72F01300A12B2
:100FDA008A119D270A128A11831203130518F62F04
:100FEA00F72FF12FE72F0A128A110028F301830144
:060FFA000A128A11C52F46
:08400000FF3FFF3FFF3FFF3FC0
:04400E00E42CFF3F60
:00000001FF
