:060000000A128A1110280B
:10000800FE00030E83160313A7000A08A8007F0842
:10001800A9000A128A111B280A128A1113288316AA
:100028000313C501C60183010A128A15852C8312A0
:1000380003130C1F20282128B42B1E088316031332
:10004800C6001E08C500831203130C13FF30EB0013
:100058000330EC0083160313460883120313DF00F2
:1000680083160313450883120313DE000530E000EE
:100078000030E1000A128A1535240A128A11831207
:1000880003135F08EE005E08ED000A128A15A22528
:100098000A128A11831203136C0883160313AB0028
:1000A800831203136B0883160313AA0046088312EE
:1000B8000313DF0083160313450883120313DE00BE
:1000C8000530E0000030E1000A128A1535240A12D2
:1000D8008A11831203135F08E7005E08E600FF3009
:1000E800E4000330E5000A128A15CF240A128A11A7
:1000F80083120313650883160313B90083120313CD
:10010800640883160313B800FF3083120313EB004F
:100118000330EC0083160313390883120313DF003E
:1001280083160313380883120313DE000A30E00035
:100138000030E1000A128A1535240A128A11831246
:1001480003135F08EE005E08ED000A128A15A22567
:100158000A128A11831203136C0883160313AD0065
:10016800831203136B0883160313AC004508F000D1
:100178004608F1000030F11BFF30F200F3000130B7
:100188000A128A1104270A128A11730883120313A8
:10019800A7007208A6007108A5007008A4004030E6
:1001A800A300A030A2000030A1000030A0000A1275
:1001B8008A11BF230A128A11831203132308831694
:1001C8000313BF0083120313220883160313BE0010
:1001D80083120313210883160313BD00831203132C
:1001E800200883160313BC003F0883120313A700DB
:1001F800831603133E0883120313A6008316031302
:100208003D0883120313A500831603133C088312C9
:100218000313A4004030A3009930A2009930A10034
:100228009A30A0000A128A11BF230A128A11831277
:1002380003132308C1002208C0002108BF002008BA
:10024800BE004430BD007F30BC00C030BB00003071
:10025800BA000A128A152D260A128A11831203136C
:100268003D08D7003C08D6003B08D5003A08D40022
:100278000A128A152A250A128A11831203135508AD
:1002880083160313BB008312031354088316031346
:10029800BA004508F0004608F1000030F11BFF30B5
:1002A800F200F30001300A128A1104270A128A1197
:1002B800730883120313A7007208A6007108A5002B
:1002C8007008A4004030A300A030A2000030A100B4
:1002D8000030A0000A128A11BF230A128A11831261
:1002E8000313230883160313BF0083120313220882
:1002F80083160313BE008312031321088316031306
:10030800BD0083120313200883160313BC00FF30BB
:1003180083120313EB000330EC00831603133F082A
:1003280083120313A700831603133E0883120313D3
:10033800A600831603133D0883120313A500831632
:1003480003133C0883120313A4004030A300993020
:10035800A2009930A1009A30A0000A128A11BF2386
:100368000A128A11831203132308D7002208D60021
:100378002108D5002008D4000A128A152A250A1255
:100388008A11831203135508E7005408E600FF306A
:10039800E4000330E5000A128A15CF240A128A11F4
:1003A800831203136508DF006408DE000A30E000EA
:1003B8000030E1000A128A1535240A128A118312C4
:1003C80003135F08EE005E08ED000A128A15A225E5
:1003D8000A128A11831203136C0883160313AF00E1
:1003E800831203136B0883160313AE000030A400B6
:1003F800A5008030A6000A128A155C240A128A1108
:10040800E83083120313EB000330EC008316031368
:10041800460883120313EE0083160313450883125C
:100428000313ED000A128A15A2250A128A118312F3
:1004380003136C0883160313B100831203136B08AC
:1004480083160313B0000130A4000030A500300863
:10045800303EA6000A128A155C240A128A110A3054
:1004680083120313E4000030E5006430EB00003031
:10047800EC0083160313460883120313EE00831659
:100488000313450883120313ED000A128A15A225E7
:100498000A128A11831203136C08E7006B08E6003E
:1004A8000A128A15CF240A128A11831203136508C7
:1004B80083160313B300831203136408831603130C
:1004C800B2000130A4000030A5003208303EA6007A
:1004D8000A128A155C240A128A110A30831203133D
:1004E800E4000030E5000A30EB000030EC00831631
:1004F8000313460883120313EE00831603134508FB
:1005080083120313ED000A128A15A2250A128A1112
:10051800831203136C08E7006B08E6000A128A15B9
:10052800CF240A128A118312031365088316031352
:10053800B50083120313640883160313B400013053
:10054800A4000030A5003408303EA6000A128A151F
:100558005C240A128A110A3083120313E400003063
:10056800E50083160313460883120313E700831676
:100578000313450883120313E6000A128A15CF24D1
:100588000A128A1183120313650883160313B7002E
:1005980083120313640883160313B6000130A40002
:1005A8000030A5003608303EA6000A128A155C24E1
:1005B8000A128A11013083160313A4000030A50023
:1005C8002030A6000A128A155C240A128A1100300B
:1005D80083160313A400A500C030A6000A128A15CA
:1005E8005C240A128A11013083160313A400003018
:1005F800A5002A08303EA6000A128A155C240A12B1
:100608008A11013083160313A4000030A5002E3090
:10061800A6000A128A155C240A128A110130831670
:100628000313A4000030A5002C08303EA6000A12CF
:100638008A155C240A128A11013083160313A40058
:100648000030A5005630A6000A128A155C240A124A
:100658008A11013083160313A4000030A50020304E
:10066800A6000A128A155C240A128A110130831620
:100678000313A4000030A5000A3083120313EB0013
:100688000030EC00831603133B0883120313EE00BB
:10069800831603133A0883120313ED000A128A150E
:1006A800A2250A128A11831203136B08303E83169F
:1006B8000313A6000A128A155C240A128A11013053
:1006C80083160313A4000030A5000A308312031315
:1006D800E4000030E500831603133B08831203137C
:1006E800E700831603133A0883120313E6000A127D
:1006F8008A15CF240A128A11831203136408303E24
:1007080083160313A6000A128A155C240A128A119A
:10071800013083160313A4000030A5002E30A60074
:100728000A128A155C240A128A11013083160313EF
:10073800A4000030A5002E08303EA6000A128A1533
:100748005C240A128A11013083160313A4000030B6
:10075800A5005630A6000A128A155C240A128A11CE
:10076800831603132908FF0028088A00270E830030
:10077800FE0E7E0E09008312031323088039AD0094
:100788002308A8002807B300A21FCB2BCC2BCD2B06
:10079800331433080319D12BD22BE12B330A031D51
:1007A800D62BD72BDF2B0030A3000030A20000305F
:1007B800A1000030A000A217E92B0030A3000030F0
:1007C800A2000030A1000030A00027088039A8004E
:1007D8002808AD062708A8002807B200A61FF52B91
:1007E800F62BF72B321432080319FB2BFC2B0B2C9E
:1007F800320A031D002C012C092C0030A700003000
:10080800A6000030A5000030A400A617132C003065
:10081800A7000030A6000030A5000030A400320870
:100828000319172C182C1D2C3308031D1C2C1D2CE8
:10083800262C0030A3000030A2000030A1000030B8
:10084800A000032F2008F00026080A128A150E249B
:100858000A128A11710883120313B9007008B800CC
:100868003808A800A901AA01AB012B08B1002A0881
:10087800B0002908AF002808AE003908A800A9016F
:10088800AA01AB012B08B7002A08B6002908B50051
:100898002808B4002108F00025080A128A150E2439
:1008A8000A128A11710883120313B9007008B8007C
:1008B8003808A800A901AA01AB012808AE07290831
:1008C80003110318013E03196A2CAF072A08031104
:1008D8000318013E0319712CB0072B0803110318E4
:1008E800013E0319782CB1073908A800A901AA010B
:1008F800AB012808B407290803110318013E03199E
:10090800862CB5072A0803110318013E03198D2CFC
:10091800B6072B0803110318013E0319942CB707D7
:100928002208F00024080A128A150E240A128A11D5
:10093800710883120313B9007008B8003808A800BA
:10094800A901AA01AB012808AE0729080311031859
:10095800013E0319B02CAF072A0803110318013E02
:100968000319B72CB0072B0803110318013E03190C
:10097800BE2CB1073908A800A901AA01AB012808B3
:10098800B407290803110318013E0319CC2CB50735
:100998002A0803110318013E0319D32CB6072B08A4
:1009A80003110318013E0319DA2CB7070830A80011
:1009B8000310AE0DAF0DB00DB10DA80BDC2C210846
:1009C800F00024080A128A150E240A128A117108E6
:1009D80083120313B9007008B8003808A800390852
:1009E800A900AA01AB012808AE07290803110318BA
:1009F800013E0319002DAF072A0803110318013E11
:100A08000319072DB0072B0803110318013E03191A
:100A18000E2DB1072008F00025080A128A150E24A9
:100A28000A128A11710883120313B9007008B800FA
:100A38003808A8003908A900AA01AB012808AE07A0
:100A4800290803110318013E03192B2DAF072A08A3
:100A580003110318013E0319322DB0072B080311A7
:100A68000318013E0319392DB1070830A8000310F7
:100A7800AE0DAF0DB00DB10DA80B3B2D2008F00049
:100A880024080A128A150E240A128A117108831280
:100A98000313B9007008B8003808A8003908A9007D
:100AA800AA01AB012808AE07290803110318013E63
:100AB80003195F2DAF072A0803110318013E031914
:100AC800662DB0072B0803110318013E03196D2D7D
:100AD800B1072108F00026080A128A150E240A1206
:100AE8008A11710883120313B9007008B800380816
:100AF800A8003908A900AA01AB012808B4072908E9
:100B080003110318013E03198A2DB5072A0803119A
:100B18000318013E0319912DB6072B08031103187A
:100B2800013E0319982DB7072208F00025080A127C
:100B38008A150E240A128A11710883120313B90048
:100B48007008B8003808A8003908A900AA01AB0144
:100B58002808B407290803110318013E0319B52D05
:100B6800B5072A0803110318013E0319BC2DB6075F
:100B78002B0803110318013E0319C32DB7072208D8
:100B8800F00026080A128A150E240A128A11710822
:100B980083120313B9007008B8003808A800390890
:100BA800A900AA01AB0108300310A80DA90DAA0DD0
:100BB800AB0DFF3E031DD82D2808B40729080311E3
:100BC8000318013E0319E92DB5072A080311031874
:100BD800013E0319F02DB6072B0803110318013E37
:100BE8000319F72DB7072E08A8002F08A900300809
:100BF800AA003108AB0018300310AB0CAA0CA90CE2
:100C0800A80CFF3E031D002E2808B407290803116D
:100C18000318013E0319112EB5072A0803110318FA
:100C2800013E0319182EB6072B0803110318013EBD
:100C380003191F2EB7070830A8000310AE0DAF0D1B
:100C4800B00DB10DA80B212E33083207A800A90159
:100C5800A90D2808823EB80029080318013EFF3E66
:100C6800B900532E0130A8000310B40DB50DB60D10
:100C7800B70DA80B382EB11F422E432E442E341424
:100C88000130A8000310AE0DAF0DB00DB10DA80BCB
:100C9800462EFF30B8070318B90AFF30B907B61F48
:100CA800562E572E362EB201B11F5B2E5C2E782E93
:100CB800FF302E05A800FF302F05A900FF303005B2
:100CC800AA007F303105AB002B082A042904280428
:100CD80003196F2E702E732EB201B20A782E341CAF
:100CE800762E772E782E702E320803197C2E7D2EC4
:100CF800AE2E0130B407003003180130B5070030BC
:100D080003180130B607003003180130B707371C45
:100D18008E2E8F2EAE2E3408A8003508A90036086E
:100D2800AA003708AB000130AC002B0DAB0CAA0CA5
:100D3800A90CA80CAC0B992E2B08B7002A08B600F2
:100D48002908B5002808B4000130B8070318B90A03
:100D58000030B9073908803AFF0080307F02031D50
:100D6800B72EFF303802031CBA2EBB2EC62E7F309A
:100D780083120313B7008030B6000030B50000308E
:100D8800B400F72E831203133908803AFF0080302D
:100D98007F02031DD12E013038020318D42ED52E20
:100DA800E12E003083120313B7000030B600003084
:100DB800B5000030B400AD01F72E831203133808D4
:100DC800B300FF30B405FF30B5057F30B6050030FD
:100DD800B705331CF02EF12EF22EB6173308A800F3
:100DE8000310280CB7002D08A8002808B7043708F6
:100DF800A3003608A2003508A1003408A0000800A6
:100E0800F80078080319092F0A2F1E2FF31F0D2F3A
:100E18000E2F1E2F7009FA007109FB007209FC00E1
:100E28007309FD00FA0A0319FB0A0319FC0A0319DE
:100E3800FD0A262F7308FD007208FC007108FB00EC
:100E48007008FA007308720471047004031D2D2FD2
:100E58002E2F372F0030F3000030F2000030F10061
:100E68000030F000BB2F9630F900472F0130F40016
:100E78007408F90701300310FD0CFC0CFB0CFA0C8C
:100E8800FF3E031D3F2FFE307D05031D4C2F4D2FC8
:100E98003A2F692F0130F4007408F9070130FA0776
:100EA800003003180130FB07003003180130FC073D
:100EB800003003180130FD0701300310FD0CFC0C55
:100EC800FB0CFA0CFF3E031D612FFF307D05031D4F
:100ED8006E2F6F2F4E2F7B2F0130F9020130F40057
:100EE8000310FA0DFB0DFC0DFD0DF40B742FFC1B0C
:100EF8007E2F7F2F852F023079020318842F852FAC
:100F0800702F7918882F892F912FFF30FA05FF301D
:100F1800FB057F30FC05FF30FD050310F90C79084F
:100F2800F400F501F601F70118300310F40DF50D82
:100F3800F60DF70DFF3E031D992F7408FA04750886
:100F4800FB047608FC047708FD0478080319AD2F24
:100F5800AE2FB32FF31FB12FB22FB32FFD177D087C
:100F6800F3007C08F2007B08F1007A08F000080022
:100F7800831603134218C12FC52F831203130914B4
:100F8800C82F83120313091083160313440883120E
:100F9800031388008914643083160313C0000030DB
:100FA800C1000A128A11E9270A128A11831203134F
:100FB8008910643083160313C0000030C1000A1280
:100FC8008A11E9270A128A110800FF3083160313D1
:100FD800C0070318C10AFF30C107400A031DF82FD4
:0C0FE800410A031DF82FF92FE92F080023
:1017FE00FF30F0070318F10AFF30F107700A031DDE
:10180E000C2C710A031D0C2C0D2CFF2B0800F8005C
:10181E00F401F5017008F200F3017208F600730886
:10182E00F700781C1B2C1C2C222C7608F4070318AE
:10183E00F50A7708F50701300310F60DF70DFF3E98
:10184E00031D232C0310F80C7808031D2F2C302CAD
:10185E00182C7508F1007408F000080083120313A9
:10186E00E201E3015E1C3C2C3D2C432C6008E20798
:10187E000318E30A6108E30701300310E00DE10DE0
:10188E00FF3E031D442C01300310DF0CDE0CFF3E27
:10189E00031D4B2C5E085F04031D562C572C392C50
:1018AE006308DF006208DE000800831603132418A5
:1018BE00612C652C831203130914682C83120313F5
:1018CE000910831603132608831203138800891444
:1018DE006430F0000030F1000A128A15FF230A125C
:1018EE008A158312031389106430F0000030F10062
:1018FE000A128A15FF230A128A150800831203138F
:10190E0085010130831603138500880183120313AA
:10191E008801831603138901831203138901813011
:10192E009F008030831603139F0001308316031728
:10193E0088008901831603130C170C1BA72CA92CE6
:10194E000B17AA2C0B130B1BAD2CAF2C8B17B02C1B
:10195E008B13003083160313C200C3003830C4004B
:10196E000A128A11BC270A128A1500308316031335
:10197E00C200C3000C30C4000A128A11BC270A121E
:10198E008A15831203139F14C82C0A128A11102869
:10199E0083120313EA01E71FD52CD62CDD2CE609A2
:1019AE00E709E60A0319E70AEA01EA0AE51FE02C4D
:1019BE00E12CE62CE409E509E40A0319E50A6408BA
:1019CE0065040319EB2CEC2C1B2DE901E90AFA2C0A
:1019DE0001300310E40DE50DFF3E031DF02C013028
:1019EE00E8006808E907E51FFD2CFE2CEF2C6508C2
:1019FE006702031D042D64086602031C072D082DC3
:101A0E000E2D6408E6026508031CE703E7020130A9
:101A1E000310E50CE40CFF3E031D0F2D0130E9020F
:101A2E00031D1A2D1B2DFE2C6A0803191F2D202DA8
:101A3E00252DE609E709E60A0319E70A6708E50016
:101A4E006608E4000800031083120313560D570DA9
:101A5E00DD005D08031D342D352D3E2D0030D700E1
:101A6E000030D6000030D5000030D400A12D54082F
:101A7E00D8005508D9005608DA005708DB001F3089
:101A8E000310DB0CDA0CD90CD80CFF3E031D472DCE
:101A9E005808DC00D617FF30D405FF30D505FF30CF
:101AAE00D6050030D7059630DD02DD1F5F2D602D87
:101ABE007A2D5D08803A973E0318662D672D682DA6
:101ACE00352D01300310D70CD60CD50CD40CFF3E9F
:101ADE00031D692D0130D8005808DD07031D782D30
:101AEE00792D682D912D20305D02031C7F2D802DC8
:101AFE008C2D352D0130D8000310D40DD50DD60DFB
:101B0E00D70DD80B832D0130DD025D08031D902DFE
:101B1E00912D812D5C080319952D962DA12DD4099B
:101B2E00D509D609D709D40A0319D50A0319D60A35
:101B3E000319D70A080083160313A1018312031396
:101B4E00EC1FAA2DAB2DB42DEB09EC09EB0A0319F2
:101B5E00EC0A83160313A101A10A8312EE1FB82DFE
:101B6E00B92DC42DED09EE09ED0A0319EE0A013067
:101B7E00EF006F0883160313A10683160313A20149
:101B8E00A301831203136B086C040319CF2DD02D00
:101B9E00162E83160313A001A00AE22D01300310A6
:101BAE00EB0DEC0DFF3E031DD62D0130EF006F083F
:101BBE0083160313A00783120313EC1FE72DE82DE2
:101BCE00D52D0130831603130310A20DA30DFF3E76
:101BDE00031DEB2D831203136C086E02031DF92DEA
:101BEE006B086D02031CFC2DFD2D062E6B08ED02FD
:101BFE006C08031CEE03EE0283160313221401304D
:101C0E0083120310EC0CEB0CFF3E031D082E01306B
:101C1E0083160313A002031D152E162EE82D831610
:101C2E000313210803191C2E1D2E222EA209A3090F
:101C3E00A20A0319A30A230883120313EC008316C6
:101C4E000313220883120313EB00080083120313FD
:101C5E0041088039CB004108C2004207D200C01FA4
:101C6E00392E3A2E3B2E5214520803193F2E402E77
:101C7E00502E520A031D442E452E4D2E0030C1000B
:101C8E000030C0000030BF000030BE00C017C101E0
:101C9E00582E0030C1000030C0000030BF000030B0
:101CAE00BE003D088039C2004208CB063D08C20086
:101CBE004207D300BC1F642E652E662E53145308A4
:101CCE0003196A2E6B2E7B2E530A031D6F2E702E58
:101CDE00782E0030BD000030BC000030BB0000305C
:101CEE00BA00BC17BD01832E0030BD000030BC0011
:101CFE000030BB000030BA003D083C043B043A04FF
:101D0E00031D8A2E8B2EA42E0030C1000030C00081
:101D1E000030BF000030BE008030C0047F30C104F0
:101D2E004B08C2004208C1044108BD004008BC0077
:101D3E003F08BB003E08BA00FF2F5208031DA82E15
:101D4E00A92EB22E0030BD000030BC000030BB000A
:101D5E000030BA00FF2F5208C200C3014308C5006D
:101D6E0053084202C400031CC50344087F3ECC0046
:101D7E0045080318013E003ECD004108CA00400848
:101D8E00C9003F08C8003E08C7000030C10000303F
:101D9E00C0000030BF000030BE000030D100003067
:101DAE00D0000030CF000030CE00D301282F5308D2
:101DBE000319E22EE32E032F0130C2000310C70DCC
:101DCE00C80DC90DCA0DC20BE52E0130C20003109D
:101DDE00BE0DBF0DC00DC10DC20BEE2ED11FF82EC4
:101DEE00F92EFA2E3E140130C2000310CE0DCF0D87
:101DFE00D00DD10DC20BFC2E3D084A02031D112F32
:101E0E003C084902031D112F3B084802031D112FE8
:101E1E003A084702031C142F152F242F51173A0886
:101E2E00C7023B08031C3B0FC8023C08031C3C0FB7
:101E3E00C9023D08031C3D0FCA020130C200420810
:101E4E00D3071A305302031C2D2F2E2FDE2E4A08D5
:101E5E004904480447040319352F362F552F4E14C5
:101E6E00552F0130C2000310BE0DBF0DC00DC10DA8
:101E7E00C20B3A2FD11F442F452F462F3E1401304F
:101E8E00C2000310CE0DCF0DD00DD10DC20B482FB9
:101E9E00FF30CC070318CD0AFF30CD07C01F582FD7
:101EAE00592F382FD301D11F5D2F5E2F7A2FFF3080
:101EBE004E05C200FF304F05C300FF305005C40071
:101ECE007F305105C50045084404430442040319FC
:101EDE00712F722F752FD301D30A7A2F3E1C782FB4
:101EEE00792F7A2F722F530803197E2F7F2FB02F41
:101EFE000130BE07003003180130BF070030031851
:101F0E000130C007003003180130C107411C902F6B
:101F1E00912FB02F3E08C2003F08C3004008C400F6
:101F2E004108C5000130C600450DC50CC40CC30CDC
:101F3E00C20CC60B9B2F4508C1004408C0004308C5
:101F4E00BF004208BE000130CC070318CD0A003096
:101F5E00CD074D08803AFF0080307F02031DB92F58
:101F6E00FF304C02031CBC2FBD2FCB2FFF30831232
:101F7E000313CC000030CD000030C1000030C00093
:101F8E000030BF000030BE00831203134D08803AAC
:101F9E00FF0080307F02031DD62F01304C02031844
:101FAE00D92FDA2FE72F83120313CC01CD01003086
:101FBE00C1000030C0000030BF000030BE00CB01B9
:101FCE00831203134C08D200521CEE2FEF2FF12F69
:101FDE00C017F52F7F30C2004208C0055208C2005C
:101FEE000310420CC1004B08C2004208C1049B2ED4
:021FFE000800D9
:08400000FF3FFF3FFF3FFF3FC0
:04400E00E42CFF3F60
:00000001FF
