:060000000A128A11FB2F19
:100F3600F10071088312031399000C1EA32FA42F2E
:100F4600A02F0C120800831203138C1EAB2FAC2F9C
:100F5600B72F1A08F00031307006031DB32FB42FD7
:100F6600B62F013086068C12080083120313850102
:100F76000130831603138500831203138701803023
:100F86008316031387008312031386018316031344
:100F96008601831603178901880119308316031306
:100FA60099002630980090308312031398000A1295
:100FB6008A11A6270A128A1183120313051CE42F2D
:100FC600E52FDA2F31300A128A119B270A128A116D
:100FD600F12F0A128A11A6270A128A118312031305
:100FE6000518F62FF72FEC2FDA2F0A128A11002890
:0A0FF600F00183010A128A11B82FDE
:08400000FF3FFF3FFF3FFF3FC0
:04400E00E42CFF3F60
:00000001FF
