:060000000A128A11EE2F26
:100D9E00FF30F0070318F10AFF30F107700A031D48
:100DAE00DC2E710A031DDC2EDD2ECF2E08007E08F0
:100DBE008A007F0882000A128A11DE260A128A1120
:100DCE008000840A04087D0603190034FF0A031903
:100DDE00FE0AE22E3F340034063400345B34003415
:100DEE004F340034663400346D3400347D340034B6
:100DFE00073400347F340034673400348312031315
:100E0E00860183160313860183120313850183164D
:100E1E00031385018316031789018801203084008E
:100E2E003C30F2000408F3001430F4007208840021
:100E3E0083130008F500F20A730884007508800019
:100E4E00F30AF40B1D2F83120313B401B5018312A1
:100E5E000313B601B70183120313B801B90183124C
:100E6E000313BA01BB018312031305148511051177
:100E7E0085103408F2007207203E840083130008A8
:100E8E0086008430F0000330F1000A128A11CF265A
:100E9E000A128A1183120313851485110511051088
:100EAE003608F2007207203E840083130008860085
:100EBE008430F0000330F1000A128A11CF260A1294
:100ECE008A11831203130515851105108510380834
:100EDE00F2007207203E84008313000886008430DF
:100EEE00F0000330F1000A128A11CF260A128A117D
:100EFE008312031385150510051185103A08F200AB
:100F0E007207203E84008313000886008430F000B0
:100F1E000330F1000A128A11CF260A128A1101300B
:100F2E0083120313BA070318BB0A0030BB073B0832
:100F3E00803AFF0080307F02031DA72F0A303A024D
:100F4E00031CAA2FAB2F3A2F013083120313B807BD
:100F5E000318B90A0030B9073908803AFF0080300B
:100F6E007F02031DBC2F0A303802031CBF2FC02F77
:100F7E00362F013083120313B6070318B70A003059
:100F8E00B7073708803AFF0080307F02031DD12F4C
:100F9E000A303602031CD42FD52F322F0130831284
:100FAE000313B4070318B50A0030B5073508803AA5
:100FBE00FF0080307F02031DE62F0A303402031C2F
:100FCE00E92FEA2F2E2F2A2F0A128A1100288313B7
:100FDE005030FD000630FE00F130FF003C30840042
:100FEE000A128A11E2260A128A1183010A128A1142
:020FFE00052FBD
:08400000FF3FFF3FFF3FFF3FC0
:04400E00E42CFF3F60
:00000001FF
