:060000000A128A11EC2F28
:100E16000130F0020030031CF103F102700A031DD9
:100E2600182F710A031D182F192F0B2F080072187F
:100E36001D2F212F831203130914242F831203134A
:100E46000910740888000A128A1153270A128A1197
:100E560008007E088A007F0882000A128A112C2761
:100E66000A128A118000840A04087D0603190034D8
:100E7600FF0A0319FE0A302F6D346134733474345B
:100E860065347234003400340034003400340034E5
:100E960000340034003400340034003400340034AC
:100EA6008312031389140A30F0000030F1000A128D
:100EB6008A110B270A128A118312031389100A302A
:100EC600F0000030F1000A128A110B270A128A116B
:100ED6000800831203138601831603138601831207
:100EE600031387011030831603138700831203133D
:100EF600880183160313880183120313890183165D
:100F06000313890183160317890188012030831290
:100F1600031394008316031394010030F200F300C8
:100F26003830F4000A128A111A270A128A11003080
:100F3600F200F3000E30F4000A128A111A270A1280
:100F46008A110030F200F3008030F4000A128A1190
:100F56001A270A128A118312031306108610F50146
:100F6600F6017508203E84008313000883120313DC
:100F760093001030F0002730F1000A128A110B2777
:100F86000A128A11831203131308F7008C11013019
:100F9600F2000030F3007708F4000A128A111A27CB
:100FA6000A128A110130F5070318F60A0030F6070F
:100FB6007608803AFF0080307F02031DE42F05305B
:100FC6007502031CE72FE82FB42FB22F0A128A11DD
:100FD600002883133430FD000730FE003F30FF0049
:100FE600203084000A128A1130270A128A11F7016A
:0A0FF600F80183010A128A116C2F22
:08400000FF3FFF3FFF3FFF3FC0
:04400E00E42CFF3F60
:00000001FF
