:060000000A128A11E62F2E
:100D2C00303431343A34353439343A34353435346A
:100D3C0000340B1DA22EA32EAA2E0130F00703188F
:100D4C00F10A0030F1070B110800FF30F807031807
:100D5C00F90AFF30F907780A031DB82E790A031D2A
:100D6C00B82EB92EAB2E08007E088A007F088200B0
:100D7C000A128A11BA260A128A118000840A0408FF
:100D8C007D0603190034FF0A0319FE0ABE2E8312D6
:100D9C00031389142330F8000030F9000A128A1169
:100DAC00AB260A128A118312031389102330F80020
:100DBC000030F9000A128A11AB260A128A110800B7
:100DCC0039307406031DEB2EEC2E002F3030F4005E
:100DDC0035307506031DF32EF42EFC2E3030F50045
:100DEC000A128A1104270A128A11032F7508013E70
:100DFC00F500032F7408013EF4000800313073062F
:100E0C00031D092F0A2F152F32307206031D0F2FC9
:100E1C00102F152F3030F3003030F200242F3930E2
:100E2C007206031D1A2F1B2F212F7308013EF3008E
:100E3C003030F200242F7208013EF2000800FB0053
:100E4C00831203130910013088000A128A11CD266F
:100E5C000A128A11FC01FD01542F8312031309108D
:100E6C007C08803E88000A128A11CD260A128A114B
:100E7C008312031309147C087B07FA007A08840098
:100E8C008313000888000A128A11CD260A128A11CF
:100E9C000130FC070318FD0A0030FD077C087B07B6
:100EAC00FA007A08840083130008031D5E2F5F2F5D
:100EBC00332F080083160313880183120313880150
:100ECC0083160313890183120313890183160317F5
:100EDC0089018801853083160313810083308312C6
:100EEC00031381000910383088000A128A11CD26AC
:100EFC000A128A110C308312031388000A128A1109
:100F0C00CD260A128A11831203132708F60026082D
:100F1C00F7002408F4002308F5002008F30021084A
:100F2C00F2007608A7007708A6007408A4007508DC
:100F3C00A3007208A1007308A0000A128A119F2650
:100F4C000A128A117D3070067104031DAE2FAF2F6B
:100F5C00A32F760883120313A7007708A600740842
:100F6C00A4007508A3007208A1007308A00020302B
:100F7C000A128A1125270A128A11F001F10139305F
:100F8C007606031DCA2FCB2FDF2F3030F6003530FD
:100F9C007706031DD22FD32FDB2F3030F7000A1228
:100FAC008A11E6260A128A11A32F7708013EF70050
:100FBC00A32F7608013EF600A32F0A128A110028EF
:100FCC0083132930FD000630FE009630FF002030E0
:100FDC0084000A128A11BE260A128A11F001F1014C
:100FEC00F201F301F401F501F601F70183010A1294
:040FFC008A11602FC7
:08400000FF3FFF3FFF3FFF3FC0
:04400E00E42CFF3F60
:00000001FF
