:020000040800F2
:10000000600600206D0100087501000877010008F6
:10001000790100087B0100087D0100080000000054
:100020000000000000000000000000007F01000848
:10003000810100080000000083010008850100081C
:100040008701000887010008870100088701000870
:100050008701000887010008870100088701000860
:100060008701000887010008870100088701000850
:100070008701000887010008870100088701000840
:100080008701000887010008870100088701000830
:100090008701000887010008870100088701000820
:1000A0008701000887010008870100088701000810
:1000B0008701000887010008000000008701000890
:1000C0008701000800000000000000008701000810
:1000D0000000000087010008870100080000000000
:1000E00087010008870100088701000800F002F876
:1000F00000F02CF80AA090E8000C82448344AAF196
:100100000107DA4501D100F021F8AFF2090EBAE893
:100110000F0013F0010F18BFFB1A43F0010318473B
:10012000B81B0000C81B0000002300240025002687
:10013000103A28BF78C1FBD8520728BF30C148BF4A
:100140000B6070471FB51FBD10B510BD00F044F81F
:100150001146FFF7F7FF00F0A9F900F062F803B4C9
:10016000FFF7F2FF03BC00F065F800000948804784
:1001700009480047FEE7FEE7FEE7FEE7FEE7FEE789
:10018000FEE7FEE7FEE7FEE704480549054A064BA1
:10019000704700002D030008ED00000860000020FB
:1001A0006006002060020020600200207047704757
:1001B000704710B500F008F8006810BD10B504468F
:1001C00000F002F8046010BD0048704700000020F5
:1001D00000487047000000207546FFF7F9FFAE4663
:1001E00005006946534620F00700854618B020B543
:1001F000FFF7CAFFBDE820404FF000064FF00007B0
:100200004FF000084FF0000B21F00701AC46ACE8BE
:10021000C009ACE8C009ACE8C009ACE8C0098D462B
:10022000704710B50446AFF300802046BDE810408B
:10023000FFF795BF01491820ABBEFEE7260002007C
:10024000704710B500F002F810BD00000CB500209A
:10025000019000903348006840F4803031490860D4
:1002600000BF3048006800F4003000900198401C46
:100270000190009818B90198B0F5A06FF1D1294804
:10028000006800F4003010B10120009001E000206F
:1002900000900098012843D12348006840F01000E6
:1002A000214908600846006820F0030008600846FD
:1002B000006840F0020008601A4840681949486028
:1002C0000846406848600846406840F480604860DE
:1002D0000846406820F47C1048600846406840F4B6
:1002E000E81048600846006840F08070086000BF71
:1002F0000C48006800F000700028F9D009484068F8
:1003000020F00300074948600846406840F00200BA
:10031000486000BF0348406800F00C000828F9D18D
:100320000CBD0000001002400020024010B5134830
:10033000006840F001001149086008464068104913
:1003400008400E494860084600680E4908400B49BD
:1003500008600846006820F480200860084640686D
:1003600020F4FE0048604FF41F008860FFF769FF2B
:100370004FF000600449086010BD0000001002400A
:100380000000FFF8FFFFF6FE08ED00E0490050EA2C
:10039000C12018BF04204A0D18BF40F0010040F2F0
:1003A000FF72B2EB515F08BF40F00200012808BFA6
:1003B000052070472DE9F0414F1E00EBC7010446B0
:1003C000D1E9000115461E4637F006020DD02A4637
:1003D000334601F0B1F87F1E04EBC703D3E90023D5
:1003E00000F0E6FD37F00602F1D1022F25D0042FF0
:1003F00013D0062F18BFBDE8F0812A46334601F01E
:100400009BF8D4E90A2300F0D3FD2A46334601F0D5
:1004100093F8D4E9082300F0CBFD2A46334601F0D7
:100420008BF8D4E9062300F0C3FD2A46334601F0D9
:1004300083F8D4E9042300F0BBFD2A46334601F0DB
:100440007BF8D4E9022300F0B3FD2A46334601F0DD
:1004500073F8D4E90023BDE8F04100F0A9BD000025
:10046000002213461046014900F05EBE0000F03F36
:1004700000F09EBD002213461046114600F054BE07
:1004800040F2013200204FF0E04101F097BB000044
:10049000024A0020110701F091BB000001FDFFFF9F
:1004A00000BF011EA0F10100FBD170470EB58320F3
:1004B00033490860002048601C2088614FF02230DA
:1004C000304908605BE0082456E0082C02D1002087
:1004D000029019E0204600F0DCFF07463A460B4642
:1004E00000204FF0804100F051F805460E4602987A
:1004F00000F0CFFF2A463346CDE9000100F058FD59
:10050000824600F069FF02904FF0000931E0029846
:1005100000F0BFFF07468846484600F0BAFF054690
:100520002A460B4600204FF0804100F02FF882460B
:100530003A46434600F03CFDCDE9000100F07CFF67
:1005400010490C3108601048FFF7AAFF484600F038
:10055000A0FF07463A460B4600204FF0804100F0CE
:1005600015F8054600F068FF06491431086009F1E6
:100570000109A145CBDB641E012CA6DA00BFA2E76E
:100580000010024000080140400D03002DE9F04D2D
:100590001D460C4698B0174621F0004123F0004359
:1005A000002814BF4FF0010C4FF0000C0CEB440C72
:1005B000FE4A0CEB02064FEA620C66452BD33E0066
:1005C00018BF012606EB45061644F94A964222D387
:1005D000F84A53EA070C02D0944205D148B918B042
:1005E00000201146BDE8F08D002808BF4FF0000C38
:1005F00001D04FF0010C0CEB440212F5001F0AD899
:10060000002F14BF4FF0010C4FF0000C0CEB450213
:1006100012F5001F07D918B03A462B462146BDE80F
:10062000F04DFFF725BF0022DFF88CA3002CB8BFE8
:10063000534526DADFF884C36345A8BF022220DAD7
:10064000DFF870C39C451CDCDFF874C30CEB235C43
:10065000BCF1140F08DDCCF1340627FA06FC0CFAC5
:1006600006F6BE420DD108E05FB9CCF1140623FABC
:1006700006FC0CFA06F69E4203D10CF00102C2F110
:10068000020251EA000C19D1002D17DA002C18BF14
:10069000022A01D0012A07D00220FFF78FFD18B0EF
:1006A000BDE8F04DFFF7DCBE0220FFF787FDFFF746
:1006B000D7FE18B081F00041BDE8F08DB7F1000C15
:1006C0006CD1534525D104F1804212F5801201BF4F
:1006D00000280020B74918B008BFBDE8F08DB54824
:1006E000884207DC002DA1BF6046294618B0BDE84E
:1006F000F08D07E0281E05DA80F0004118B0604652
:10070000BDE8F08DAF497944D1E9000118B0BDE8EA
:10071000F08DDFF8A0C2634525D1002D1FDA19B195
:10072000514512D1D8B909E0002840F0EC82A24A24
:10073000214618B062F31E01BDE8F08D002021466D
:1007400018B060F31E01BDE8F08D08DA18B023463A
:10075000BDE8F04D02460020614600F0E5BC18B04F
:100760002146BDE8F08D514518DAB5F1804F0DD026
:10077000A5F1005CBCF1FF5C10D1B4F1000C0DDB05
:1007800018B06146BDE8F04D00F0ECBB234618B050
:100790000246BDE8F04D194600F0CEBE060024F03A
:1007A000004C3BD1D9B1514533D1002C06DD002D91
:1007B000A1BF0020514618B0BDE8F08D002C01DD2E
:1007C000002D1BDB002C13DA002D11DB012A4FF06A
:1007D000000014BF78497C4918B0BDE8F08D022AAA
:1007E00018BF002C0AD0012A08D1002C06DA0AE032
:1007F000002CB8BF002D11DA012A04D0002018B057
:100800000146BDE8F08D18B000204FF00041BDE872
:10081000F08DA1F14050B0F17F601AD0012000EBC3
:10082000E47050EA020421D0624C521E4FF0000BDB
:10083000104304BF4FF0000B644C654883427CDDDD
:10084000644A654893421FDD884217DB002D25DB93
:1008500037E0002C00DA4AB1022A0CBF01204FF029
:10086000FF3018B0BDE8F04D00F013BE0120FFF7D7
:10087000A5FC18B0BDE8F04DFFF7FCBD4D4A8A421B
:1008800002DC002D0ADC1CE0814202DA002D18DABD
:1008900004E0484B994220DD002D12DD0220FFF7D5
:1008A0008DFCFFF7EDFD05460E46002253465846E7
:1008B000214600F041FE18B066F31E012846BDE84F
:1008C000F08D0220FFF77AFCFFF7E2FD0A46214691
:1008D00018B062F31E01BDE8F08D0022304661467B
:1008E00001F050F880460E466FF0010201F066F903
:1008F0004FF05532394B00F053FF4246334600F07B
:100900001BFE0022364B00F04BFF82464246334628
:1009100004911046194600F00FFE5246049B00F069
:100920000BFE8A4600904FF0C0422E4B40463146A7
:1009300000F002FE2C4A2B4B00E027E0CDE9060137
:100940005146009800F0F8FD82460191274A284B55
:100950004046314600F0F0FD5246019B01F012F88E
:1009600082460B4602460591DDE9060100F020FBB8
:10097000DDE9062300268846304601F003F852469A
:10098000059B00F00DFF024600F07EB90020B1F596
:10099000801F07DA35223046614601F00FF906461E
:1009A0006FF0340000EB215024E00000FFFF1F0037
:1009B000FFFF0F000000F03F0000F07F0000404309
:1009C00001FCFFFFC61500000000F0FF0000F0BFB3
:1009D0000000E0410000F043FFFFEF3F5555D53FD9
:1009E0000000E03F4715F73FFE822B6544DF5DF8CE
:1009F0000BAE543EA0F2FF300190C1F3130040F063
:100A00007F6141F040510291FE498842D8BF0020E9
:100A100004DDFD498142C8BF012001DD0D9008E0E1
:100A200000200D900198401C01900298A0F58010C4
:100A300002900299F54878440B910D9900EBC100A2
:100A4000D0E900230F9330460A920B9900F09AFFE9
:100A5000CDE90601DDE90A2130460F9B00F0A8FA36
:100A600002460B460020EA4900F05EFB0591024673
:100A70000B460090DDE9060100F05EFD1490E548AC
:100A80008A464FF0000878440299006812904FF0AF
:100A9000005040EA61010D980F9B01EB804000F58A
:100AA000002109910A9A129800F06CFF32460B9BC4
:100AB00000F076FE4246534600F03EFD06460291A7
:100AC00040465146099B129A00F036FDDDE90623A7
:100AD00000F066FE3246029B00F054FF059B009A30
:100AE00000F02AFD0091149A0490534610461946CE
:100AF00000F022FD06460246C7480B460291062139
:100B00007844FFF757FCCDE90510029B32461046AA
:100B1000194600F011FDDDE9053200F00DFD0591EB
:100B20000646534640461946149A00F041FA009B87
:100B3000049A00F001FD3246059B00F039FACDE938
:100B40000510424653461046194600F0F5FC0022B7
:100B5000B24B02910A9000F02BFADDE9053200F069
:100B600027FA0E464246AD4B404600F00BFF029B73
:100B70000A9A00F007FFDDE9053200F011FE424657
:100B800002910A9033461046514600F0D5FCCDE95B
:100B900006015346149A02990A9800F0CDFC8A4641
:100BA0000290334642460099049800F0C5FC534633
:100BB000029A00F0FDF982460B4602460591DDE9F6
:100BC000060100F0F5F9DDE9062300208846064617
:100BD00000F0D8FE5246059B00F0E2FD82460991E6
:100BE0004FF060428E4B3046414600F0A5FC049029
:100BF00006918C4A8A4B5046099900F09DFC82462A
:100C00000291894A894B3046414600F095FC524694
:100C1000029B00F0CDF9864B7B440D9A03EBC20397
:100C2000D3E9002300F0C4F90E900791019800F079
:100C300030FC0591DDE9061382460E9A049800F017
:100C4000B7F97C4A7A440D9B02EBC303D3E9002336
:100C50000093029200F0ACF95246059B00F0A8F90F
:100C60000026884652463046059B00F08BFE009BCE
:100C7000029A00F087FE069B049A00F083FE079B11
:100C80000E9A00F08DFD024600200B460290384679
:100C9000294600F051FC824601912B463846194600
:100CA000029A00F06FFE3246434600F045FC524681
:100CB000019B00F07DF907468A46324643462946A5
:100CC000029800F039FC05460E463A46534600F0BD
:100CD0006FF9594A8846914221DBA8EB020353EA97
:100CE000000210D12A46334600F04CFECDE9040143
:100CF000524A534B3846514600F05AF9DDE9042375
:100D000000F018FD21D20220FFF758FAFFF7B8FBD8
:100D10000A46214618B062F31E01BDE8F08D494B2A
:100D200028F000429A4210D3474A08EB020353EAE4
:100D300000027FF4C6AD2A46334600F023FE3A4651
:100D4000534600F0F7FC7FF6BCAD0022019228F07C
:100D500000403E493E4A01EB2051824223DA481CC2
:100D60004FF4801121FA00F040443A4AC0F30A518E
:100D70007A44394BA1F2FF31CB4020EA0303C0F3A0
:100D8000130040F48010C1F11401C84012680190B2
:100D9000B8F1000FBCBF404201902846314600F038
:100DA000F1FD05460E462A4633463846514600F0C8
:100DB000FFF84FF000084246284B4046059100F0EE
:100DC000BBFBCDE90601264A264B4046059900F0BB
:100DD000B3FB009102902A4633464046059900F045
:100DE000D1FD3A46534600F0DBFC1F4A1F4B00F092
:100DF000A3FB009B029A00F0DBF8074688460246F8
:100E00000B4635E08E9803007AB60B000E120000F8
:100E10000000F03F4612000074110000000008407E
:100E200009C7EE3FFD033ADCF5015B14E02F3EBE3F
:100E30004C1000001010000000009040FE822B6556
:100E40004715973C00CC904000346F3F01FCFFFFFA
:100E50000000E03F5C0F0000FFFF0F00432EE63F65
:100E6000396CA80C615C20BEEF39FAFE422EE63FD9
:100E7000DDE9060100F09CF8DDE9062305460E4693
:100E800000F080FD3A46434600F08AFC0F462A46B1
:100E9000334600901046194600F04EFB824602464B
:100EA0002E4888460B4605217844FFF783FA5246C0
:100EB000434600F041FB2A46334600F071FC804671
:100EC0008A463B4628463146009A00F035FB3B46B1
:100ED000009A00F06DF80691009000224FF08043D8
:100EE0004046514600F04EFD0F460C904246534698
:100EF0002846314600F020FB3B460C9A00F014F9DE
:100F0000069B009A00F03EFD2A46334600F03AFD6B
:100F10000022134B00F044FC054601980E4601EBFD
:100F200000510815002810DC28463146019A00F0CF
:100F300045FEFFF72BFA042808BFFFF7A9FA284659
:100F40003146019A00F03AFE05460B4618B02A4693
:100F500058462146BDE8F04D00F0EEBAFC0D000009
:100F60000000F03F2DE9F04106460F4600F024FC5A
:100F7000041E0D4618BF0120284320F00040C0F198
:100F80007F6000F1E040C00F0ED0301C18BF012080
:100F9000384320F00040C0F17F6000F1E040C00F16
:100FA00004BF0120FFF70AF920462946BDE8F08179
:100FB00010B591EA030F48BF83F0004300F1EA84C3
:100FC000841A71EB030C05D2121943EB0C03001BBE
:100FD00061EB0C01DFF824E14FEA1154A4EB135C40
:100FE0001EEA430F18BF9EEA445F73D023EA0E0344
:100FF000DCF1200E21EA045143F4801332D322FAAB
:101000000CFE10EB0E0023FA0CFE41EB0E01CCF1AE
:10101000200E03FA0EFE10EB0E0051F10001B1F5A7
:10102000801FCCF1200E32D201EB045112FA0EF2E5
:10103000BDE8104058BF7047401C38BF5FEA42020D
:1010400018BF7047002814BF20F0010041F10001D3
:101050004FEA410313F5001F38BF7047A1F1C041AB
:1010600000F062BB012A43EB0302ACF1200CDCF17F
:101070001F0E32BF4FF0000E23FA0CF310EB0300EB
:1010800041EB0451B4EB115FD0D0A1EB045101F559
:10109000801149085FEA300001EB04510ED350F192
:1010A000000038BF12FA0EFE08D1BDE81040C9E7B3
:1010B000401C38BF5FEA4202CAD1C3E7BDE8104016
:1010C0004FEA410313F5001F38BF7047A1F1C0413B
:1010D00000F02ABB9EEA445F08D011EA5E0FBDE82B
:1010E000104004BF01F0004100207047BDE81040EF
:1010F00070B500F0CBFA00BF64FBBE3E0000E0FF1D
:1011000002494FF0000000F027BD00BF0000F87F4B
:10111000491058BFC1F140415B1058BFC3F1404373
:101120008B42EFF3008070472DE9C04130B4DFF807
:10113000A0C23CEA111418BF3CEA131400F0EC8082
:1011400081EA03051CEA111444EAD57418BF1CEAAD
:10115000131500F0C780A4EB05044FF0004545EAE5
:10116000C12145EAC32341EA505143EA525304F1F5
:101170007F74994204F500344FEAC0204FEAC2223E
:1011800008BF904200F09C804FEA13650FF24016B2
:10119000765D4FEA134506FB05F7C7F1807706FB3E
:1011A00007F74FEAD737A7FB03687642C8F58038C0
:1011B000A7FB06CE38BFA8F1010807FB08E64FF0F1
:1011C000000EA6FB028CE6FB03CEDCF1000CCEF198
:1011D000004E38BFAEF1010EA6FB0C584FF00007D1
:1011E0004FF00005E6FB0E87A1FB08C6A0FB07CE6B
:1011F00016EB0E0645F10005E1FB076515F1E04E23
:101200007EBFA4F580345FEA46066D4116F1800783
:1012100045F100054FEA17274FEA066647EA0567DA
:10122000A6F1DE46B6F1805F4FEA15251FD9384694
:1012300024F0010C05EBC471BCF1FE6F01EB0C1145
:1012400002D8F0BCBDE8008124425CBF01F5801EDD
:101250009EEAC47F02D4F0BCBDE80081244238D4A9
:10126000F0BCA1F1C041BDE8004100F05DBA4FEA19
:10127000D22242EA43524FEAD323A7FB02864FEA27
:10128000D02040EA415007FB03661EEA0E0F4FEAEA
:10129000D12105FB026658BFA6EB0056B6EB0056FF
:1012A0004FEA520E4EEAC37E18EB0E0E56EB530E6B
:1012B000BDD518EB02085E417F1C55F10005B6E76D
:1012C0004FF480154FF000074FF000064FF0000874
:1012D000ADE7F0BC4FF0000001F1C04101F000416A
:1012E000BDE8008111EA0C1F0CEA131500D00CE0D8
:1012F00013EA0C1F00F025804FF00000F0BC81EADB
:10130000030101F00041BDE80081F0BCBDE80041EF
:1013100081EA030100F008BAF0BCBDE8004170B5F5
:1013200000F0B4F9097EFC3E00F007B881EA030141
:101330004FF0000001F00041704781EA030100F026
:10134000F3B9F0BCBDE800414FF0000021497047FF
:10135000FFFDFBF9F7F5F4F2F0EEEDEBE9E8E6E47A
:10136000E3E1E0DEDDDBDAD8D7D5D4D3D1D0CFCD01
:10137000CCCBCAC8C7C6C5C4C2C1C0BFBEBDBCBB3A
:10138000BAB9B8B7B6B5B4B3B2B1B0AFAEADACAB35
:10139000AAA9A8A8A7A6A5A4A3A3A2A1A09F9F9E0F
:1013A0009D9C9C9B9A9999989797969595949393C1
:1013B000929191908F8F8E8E8D8C8C8B8B8A898958
:1013C00088888787868585848483838282818180DB
:1013D0000000FF070000F87F4FEA41034FEA535334
:1013E000A3F58063D3F11E03C8BFD3F1210C0CDD3C
:1013F0004FF0004242EAC12242EA505232FA03FC64
:101400008CEAE17CACEBE1707047102BC4BF00208C
:10141000704703F5787CBCF1FF3F04D06FF00042C9
:1014200082EA2100704770B500F030F949922480BB
:1014300000207047F2E700004FEA1153A3F58063E4
:10144000D3F11E03A8BFD3F1200C08DB4FF00042FC
:1014500042EAC12252EA505232FA03F0704709427E
:101460000BD4102BC4BF0020704703F5787CBCF16F
:10147000FF3F05D04FF0FF3070474FF0000070473E
:1014800070B500F003F900BF499224800020704736
:10149000F0E710F0004248BF4042B0FA80F310FA83
:1014A00003F10AD0C3F11D0303F580634FEA4150F5
:1014B00002EB035202EBD12170474FF0000070475E
:1014C00051EA030C17D41CF5801F58BFBCF5801FD0
:1014D00000F10680994218BF704708BF90427047DC
:1014E00007D711F5801F58BF13F5801F19D49942F3
:1014F0007047894270471CF5801F08D5BCF5801FD6
:10150000F7D58B4218BF704708BF824270474FF42F
:10151000001C1CEB410F38BF1CEB430F01D28B4268
:10152000704770B500F0B2F8922449004FF00051B6
:101530004FF08053FFF7ECBDDFF848C170B51CEAEF
:10154000111E1EBF1CEA13159EEA0C0F95EA0C0F24
:1015500000F06F8081EA030423EA4C134EEAD47E44
:1015600021EA4C1141F4801143F48013AE44A1FBF5
:10157000024CA0FB0365AEF17F7E361955EB0C05DE
:10158000A1FB034C4CF10003A0FB021C16EB0C0664
:10159000654153F10003094218BF46F0010613F4F8
:1015A000007F0BD14FEA03314FEA0530340341EAA3
:1015B000155140EA16506FF003020AE04FEAC321CA
:1015C0004FEAC520F40241EA555140EA56506FF007
:1015D000020202EB2E4201EB025585EACE710AD0DF
:1015E0005FEA440C18BF24F0004450F1000041F1C0
:1015F000000120EAD47040F2FE7C624500D270BD4A
:10160000A84214BF4FF080444FF04044002E08BF62
:101610000024BEF1806FA8BFA1F1C041BDE87040B9
:1016200080F282804FF0000001F1C04101F00041E2
:1016300070479EEA0C0F0CEA131518BF95EA0C0FC1
:1016400006D04FF0000081EA030E0EF0004170BD9D
:1016500000F01CF88900013E00F007B800F009B85E
:101660004FEA430C5FEA5C5C08D081EA030100F0BA
:101670005BB84FEA410C5FEA5C5CF6D14FF00000CA
:10168000014970470000FF070000F87F0EF1020ECD
:101690002EF0030E5EF8046B364205D4012A43EBAC
:1016A000030515F5001F12D8012841EB010C1CF5AC
:1016B000001F0CD80ED14FEAD17C15F5001F0CEBA2
:1016C0004C0C0CF1020C08BF4CEBD37C04E04FF047
:1016D000080C01E04FEAD37C0CEB4C0526FA05F62A
:1016E00006F00706B6F1040C06D20EEB860CBDE838
:1016F00070404CF0010C6047DFE80CF0090B02026F
:101700004FF000414FF00000A1F5002170BD1946D7
:101710001046012851EB010418BFD4F5001484BF12
:10172000002001F0004170BD0808A0F500114FEA4B
:101730003101704753EA010C17D41CF5801F58BFC4
:10174000BCF5801F00F106808B4218BF704708BFB0
:101750008242704707D713F5801F58BF11F5801FCD
:1017600019D48B4270479B4270471CF5801F08D5E7
:10177000BCF5801FF7D5994218BF704708BF90424B
:1017800070474FF4001C1CEB430F38BF1CEB410F9C
:1017900001D2994270470FB40CBC03BCFFF7C1BE25
:1017A00091EA030F10B581F000413FF509AC83F0D9
:1017B000004300F0EFB800002DE9F04101F5801C76
:1017C000BCF5001FC0F2C3804FEA115C21EA0C5146
:1017D0000CF1FD0C41F480115FEA5C0C0CF5C07C4F
:1017E00001D3400049413DA4890241EA905187025A
:1017F0008E0E0A0CA45D04FB04F602FB06F6C6F18D
:101800004046A4FB0662F60D46EA422606FB06F4B5
:10181000A4FB01235242C3F1404338BF5B1EA6FB29
:1018200002420024E6FB0324D20B42EA4446A6FB14
:101830000623A1FB02E2A3FB07E4A4184FF0000279
:1018400052F10002E3FB01426442C2F1404E38BF54
:10185000AEF1010EA6FB04234FF00002E6FB0E32B0
:10186000A2FB03464FF00004B61954F10004E2FB5A
:101870000264A1FB06E6A4FB07E816EB08064FF09E
:10188000000858F10008E4FB01687642C8F14058AE
:1018900038BFA8F10108A2FB06E4A3FB08E52D1957
:1018A0004FF0000454F10004E2FB0854A1FB05E6EC
:1018B000A7FB04E818EB06084FF0000656F10006F7
:1018C000E1FB048618F1200556F10006A809A8F1ED
:1018D0001B08B10908F03F08B8F10A0F40EA86601A
:1018E0001CD901EB0C51BDE8F08100BFFCF5EEE81E
:1018F000E2DDD8D3CFCBC7C3C0BDB9B6B4B1AEACAF
:10190000A9A7A5A3A19F9D9B9A9896959392908F26
:101910008D8C8B898887868584838281A0FB006873
:1019200000FB01F208EB4208B8EB872807D5341812
:1019300058EB0104D5D5401C51F10001D1E7341A10
:1019400078EB0104CDD4401E71F10001C9E75FEAD4
:101950004C0C5FEA9C5C0DD105D34FF0000001F008
:101960000041BDE8F081BDE8F04170B5FFF78EFEA3
:101970006DDBFFBEBDE8F0414FF00000004970474D
:101980000000F87F10B591EA030F48BF83F00043D1
:101990003FF516AB841A71EB030C07D212198CF0C9
:1019A000004C43EB0C03001B61EB0C01DFF8A4E1DE
:1019B0004FEA1154A4EB135C1EEA430F18BF9EEAD2
:1019C000445F00F0B08023EA6E03524221EA0451E2
:1019D000C3EB6E0338BF5B1EDCF1200E25D322FA69
:1019E0000CFE10EB0E0043FA0CFE41EB0E01CCF1A5
:1019F000200E03FA0EFE10EB0E0051F10001CCF1A7
:101A0000200E29D412FA0EF201EB0451BDE8104069
:101A100058BF7047401C1CBFB2F1004F70470028F0
:101A20000CBF491C20F00100704712EB020E43EB83
:101A3000030218BF4FF0010E4EEA4202ACF1200C37
:101A4000DCF11E0E54D943FA0CFE10EB0E0051F1DE
:101A5000FF31CCF11E0ED5D50EF1010E12FA0EFE9D
:101A6000404141EB010101EB445C5FEA5C5C10D951
:101A700010EBDE7001EB045138BFBEF1004FBDE842
:101A8000104018BF704700280CBF491C20F001000F
:101A9000704730D24FEAD42C11F5001124F40064C1
:101AA0001BD0B1FA81F20B3AA41AA41ED2F1200382
:101AB000914030FA03F31943904001EBCC71002CB4
:101AC00001EB0451BDE81040A8BF704701F1C041CF
:101AD0004FF0000001F000417047B0FA80F310FAB7
:101AE00003F100D110BDE41A173C4805C90AE4E728
:101AF00001EB045110BD491001EB0451BDE8104049
:101B00004FEA300002E04FF0000170474A0008BF82
:101B10000042F8D0B2F5001F28BF704701F0004125
:101B20004FF0000070479EEA445F07D011EA5E0F55
:101B3000BDE8104004BF002100207047BDE8104000
:101B400070B5FFF7A3FD00BF40DFF63E83F0004114
:101B5000104670470000E0FF0CF00F03092B08BF90
:101B6000082000F059800A2B0BD0082B18BF7047B3
:101B700008BF1CF0400F0AD04FF000004FF00001EA
:101B800070471CF0400F18BF4FF0004070471CF02A
:101B9000100F08D020F0704300F07F4242EAD301DA
:101BA0004FEA4370704700F0604021F07F4242EA04
:101BB000000201F07F4040EA727070474FF0FF0C66
:101BC0004CF4E06C1CEA11531CBF9CEA030C9445D6
:101BD000C2BFDA4201EB02517047002B0DD0BCF1BD
:101BE000000F0FD0002A01F00041A4BF41F0E041F6
:101BF00041F07F614FF00000704701F000414FF06D
:101C00000000704750EA01334FF09B0C18BF4CF0B6
:101C1000806C7FF475AA70471CF4801F11D01CF4EF
:101C2000E02F03D06FEACC31490070474FF04050AD
:101C3000EFF3008222F0704242EA000282F3008851
:101C400070474FF000007047000000000000F03FB8
:101C5000000000000000F83F00000000000000004D
:101C60000000004003B8E23F000000000000000058
:101C700006D0CF43EBFD4C3E033333333333E33FE6
:101C8000FFAB6FDBB66DDB3F4D268F515555D53F12
:101C900001411DA96074D13F65DBC9934A86CD3FE0
:101CA000EF4E454A287ECA3F3E5555555555C53FCE
:101CB00093BDBE166CC166BF2CDE25AF6A56113FC0
:101CC000F16BD2C541BDBBBED0A4BE726937663EC2
:101CD0000000000000000000E81C000800000020D8
:081CE000600600002801000865
:04000005080000ED02
:00000001FF
