:060000000A128A11E32F31
:100E520045344634473448340130F0020030031C34
:100E6200F103F102700A031D3A2F710A031D3A2F92
:100E72003B2F2D2F080072183F2F432F831203138D
:100E82000914462F831203130910740888000A12EA
:100E92008A114E270A128A11080083120313891439
:100EA2000A30F0000030F1000A128A112D270A12CE
:100EB2008A118312031389100A30F0000030F10006
:100EC2000A128A112D270A128A11080083120313AB
:100ED20085012030831603138500831203138701D3
:100EE20018308316031387008312031388018316B5
:100EF20003138801831203138901831603138901E3
:100F02008316031789018801243083120313940086
:100F12008316031394010030F200F3003830F4001A
:100F22000A128A113C270A128A110030F200F300D9
:100F32000E30F4000A128A113C270A128A1100307C
:100F4200F200F3008030F4000A128A113C270A12E0
:100F52008A11F501F6017508773E840000088312B4
:100F6200031393001030F0002730F1000A128A11A7
:100F72002D270A128A11831203131308FB008C1106
:100F82000130F2000030F3007B08F4000A128A11EB
:100F92003C270A128A110130F5070318F60A0030BD
:100FA200F6077608803AFF0080307F02031DDB2FB0
:100FB20005307502031CDE2FDF2FAC2FAA2F0A1279
:100FC2008A1100280A128A1129270A128A11F700A7
:100FD2000A128A112A270A128A11F8000A128A11A1
:100FE2002B270A128A11F9000A128A112C270A12D7
:0E0FF2008A11FA00FB0183010A128A11672F8F
:08400000FF3FFF3FFF3FFF3FC0
:04400E00E42CFF3F60
:00000001FF
