:060000000A128A11EE2F26
:100E7000FF30F0070318F10AFF30F107700A031D75
:100E8000452F710A031D452F462F382F08007E0875
:100E90008A007F0882000A128A1147270A128A11E3
:100EA0008000840A04087D0603190034FF0A031930
:100EB000FE0A4B2F3F340034063400345B340034D8
:100EC0004F340034663400346D3400347D340034E3
:100ED000073400347F340034673400348312031342
:100EE0008701831603138701831203138801831676
:100EF00003138801203084003830F2000408F30026
:100F00001430F4007208840083130008F500F20A1C
:100F10007308840075088000F30AF40B822F831293
:100F20000313B401B50183120313B601B701831291
:100F30000313081088143408F2007207203E84005E
:100F4000831300088700E830F0000330F1000A1234
:100F50008A1138270A128A11831203130814881081
:100F60003608F2007207203E8400831300088700D1
:100F7000E830F0000330F1000A128A1138270A1213
:100F80008A11013083120313B6070318B70A003021
:100F9000B7073708803AFF0080307F02031DD22F49
:100FA0000A303602031CD52FD62F972F013083121B
:100FB0000313B4070318B50A0030B5073508803AA3
:100FC000FF0080307F02031DE72F0A303402031C2C
:100FD000EA2FEB2F932F0A128A11002883134C302B
:100FE000FD000730FE005A30FF00383084000A123E
:100FF0008A114B270A128A1183010A128A116E2F55
:08400000FF3FFF3FFF3FFF3FC0
:04400E00E42CFF3F60
:00000001FF
