:060000000A128A11E82F2C
:100C3800303430340034FF30F0070318F10AFF3045
:100C4800F107700A031D2C2E710A031D2C2E2D2E60
:100C58001F2E08008312031389146430F00000303B
:100C6800F1000A128A111F260A128A11831203132D
:100C780089106430F0000030F1000A128A111F2632
:100C88000A128A110800F3008312031309100130B5
:100C980088000A128A112E260A128A11F401F50117
:100CA800762E8312031309107408803E88000A12F6
:100CB8008A112E260A128A11831203130914740842
:100CC8007307F200720884008313000888000A1270
:100CD8008A112E260A128A110130F4070318F50A20
:100CE8000030F50774087307F20072088400831354
:100CF8000008031D802E812E552E0800F901FA01E7
:100D0800F901FA018D2E0130F9070318FA0A0030AB
:100D1800FA070A30F0000030F100831203132408A8
:100D2800F3002308F2000A128A1128270A128A11EE
:100D38007A087106031DA22E79087006031DA52ED8
:100D4800A62E872EFB01FC01AF2E0130FB070318EE
:100D5800FC0A0030FC070A30F0000030F100831272
:100D680003132408F3002308F2000A128A118127CA
:100D78000A128A117C087106031DC42E7B087006AE
:100D8800031DC72EC82EA92E7B08303E83120313DD
:100D9800A0007908303EA1000800831603138601DD
:100DA800831203138601870101308316031387001A
:100DB80088018312031388018316031389018312A0
:100DC80003138901831603178901880107308312E9
:100DD800031390008E018F010910383088000A1221
:100DE8008A112E260A128A110C30831203138800E6
:100DF8000A128A112E260A128A1120300A128A1122
:100E080047260A128A11831203130F08A4000E083A
:100E1800A300071C102F112F072F013086060A1276
:100E28008A1182260A128A1120300A128A1147264C
:100E38000A128A11831203130718232F242F1E2F37
:100E4800072F0A128A110028F601F31F2C2F2D2FC5
:100E5800342FF209F309F20A0319F30AF601F60A24
:100E6800F11F372F382F3D2FF009F109F00A031928
:100E7800F10A700871040319422F432F722FF501EC
:100E8800F50A512F01300310F00DF10DFF3E031D3F
:100E9800472F0130F4007408F507F11F542F552F20
:100EA800462F71087302031D5B2F70087202031C22
:100EB8005E2F5F2F652F7008F2027108031CF30381
:100EC800F30201300310F10CF00CFF3E031D662FF6
:100ED8000130F502031D712F722F552F7608031963
:100EE800762F772F7C2FF209F309F20A0319F30AF8
:100EF8007308F1007208F0000800F601F11F852F51
:100F0800862F8D2FF009F109F00A0319F10AF6016D
:100F1800F60AF31F902F912F9A2FF209F309F20A7C
:100F28000319F30A0130F4007408F606F701F80112
:100F3800700871040319A12FA22FD92FF501F50A02
:100F4800B02F01300310F00DF10DFF3E031DA62F49
:100F58000130F4007408F507F11FB32FB42FA52F43
:100F680001300310F70DF80DFF3E031DB52F710872
:100F78007302031DC12F70087202031CC42FC52FF2
:100F8800CC2F7008F2027108031CF303F3027714E4
:100F980001300310F10CF00CFF3E031DCD2F013082
:100FA800F502031DD82FD92FB42F76080319DD2F8A
:100FB800DE2FE32FF709F809F70A0319F80A78086A
:100FC800F1007708F00008000A128A111C260A129C
:100FD8008A11A0000A128A111D260A128A11A1007C
:100FE8000A128A111E260A128A11A200A301A4015C
:080FF80083010A128A11D12EB7
:08400000FF3FFF3FFF3FFF3FC0
:04400E00E42CFF3F60
:00000001FF
